:100000000C948F030C94C7030C94C7030C94C70380
:100010000C94C7030C94C7030C94C7030C94C70338
:100020000C94C7030C94C7030C94C7030C94A01D35
:100030000C945C1D0C946F1E0C94C7030C94C703A6
:100040000C94C7030C94C7030C94C7030C944B1E69
:100050000C94C7030C94C7030C94C7030C94C703F8
:100060000C94C7030C94C7030C94C7030C94C703E8
:100070000C94C70305010980A101850319012AB762
:1000800000150126B700950175108100C0050C0907
:1000900001A101850419012AA002150126A00295DB
:1000A0000175108100C00660FF0961A10109621598
:1000B0000026FF009520750881020963150026FFC0
:1000C00000952075089102C005010906A1010507E8
:1000D00019E029E7150025019508750181029501B0
:1000E000750881010507190029FF150026FF0095F5
:1000F0000675088100050819012905950575019106
:1001000002950175039101C000000000000000008D
:1001100000000000000000000000000000000000DF
:100120000000000000000000000000007E0F00D46E
:10013000FFFFFFC700000078000000000000000083
:100140002A2B280000000000000000000000000032
:1001500000000029000000002C1E3420212224343D
:100160002627252E362D3738271E1F20212223240F
:1001700025263333362E37381F0405060708090AAB
:100180000B0C0D0E0F101112131415161718191A47
:100190001B1C1D2F3130232D350405060708090AC5
:1001A0000B0C0D0E0F101112131415161718191A27
:1001B0001B1C1D2F3130354C00047F3F1F6432144F
:1001C000643214783C1E1E140A050001010101016D
:1001D0000101010102020202020202020203030300
:1001E00003030303030404040404040405050505D0
:1001F0000506060606060707070707080808080990
:100200000909090A0A0A0B0B0B0C0C0C0D0D0D0E3B
:100210000E0E0F0F0F1010111111121213131414D0
:10022000151516161717181819191A1A1B1B1C1D45
:100230001D1E1E1F2020212222232424252626279E
:100240002829292A2B2C2D2D2E2F303132323334D0
:1002500035363738393A3B3C3D3E3F4041424344D6
:1002600045464748494A4C4D4E4F505153545556B8
:1002700058595A5B5D5E5F616264656668696B6C64
:100280006D6F7072737577787A7B7D7E80828385DF
:1002900087888A8C8E8F91939596989A9C9EA0A21F
:1002A000A3A5A7A9ABADAFB1B3B5B7BABCBEC0C229
:1002B000C4C6C9CBCDCFD1D4D6D8DBDDDFE2E4E7ED
:1002C000E9EBEEF0F3F5F8FAFDFFFFAA7F554022C7
:1002D00023252628292A2C2D2F3032333536383A3B
:1002E0003B3D3E4042434547494A4C4E5051535591
:1002F00057595A5C5E6062646668696B6D6F7173B2
:100300007577797B7D7F81838587898A8C8E9092B2
:100310009496989A9C9E9FA1A3A5A7A8AAACAEAFBD
:10032000B1B3B4B6B8B9BBBCBEBFC1C2C3C5C6C702
:10033000C9CACBCCCDCED0D1D2D2D3D4D5D6D7D7B3
:10034000D8D9D9DADADBDBDBDCDCDCDCDCDDDDDDFB
:10035000DDDCDCDCDCDCDBDBDBDADAD9D9D8D7D7F7
:10036000D6D5D4D3D2D2D1D0CECDCCCBCAC9C7C6A4
:10037000C5C3C2C1BFBEBCBBB9B8B6B4B3B1AFAEE2
:10038000ACAAA8A7A5A3A19F9E9C9A989694929088
:100390008E8C8A89878583817F7D7B797775737160
:1003A0006F6D6B6968666462605E5C5A595755533D
:1003B00051504E4C4A4947454342403E3D3B3A38F6
:1003C00036353332302F2D2C2A2928262523222971
:1003D000001E001F00200021002200230024002511
:1003E00000260027002D002E002A002B0014001AE2
:1003F000000800150017001C0018000C0012001364
:10040000002F0030003100390004001600070009F9
:10041000000A000B000D000E000F00330034000036
:10042000002800E1001D001B000600190005001156
:10043000001000360037003800E50052004C00E0A4
:1004400000E300E200000000002C000000000000BB
:10045000000151E400500051004F0035003A003BCC
:10046000003C003D003E003F004000410042004390
:100470000044004500C35C010001000100010001CF
:100480000001000100010001000100010001000164
:100490000001000100010001000100010001000154
:1004A0000001000100010001000100000001000145
:1004B0000001000100010001000100010001000134
:1004C00000010001000100C95C01000251010001AE
:1004D0000000000000010000000000000001000119
:1004E00000C55CCA5CC65C0100010001000100019E
:1004F00000010001000100010001000100010001F4
:1005000000010001000100010001000100010001E3
:1005100000010001000100010001000100010001D3
:1005200000010001000100010001000100010001C3
:1005300000010001000100000001000100010001B4
:1005400000010001000100010001000100010001A3
:100550000001000100010001000100010000000095
:100560000001000000000000000100010001000186
:1005700000005C0100010001000100010001000118
:100580000001000100010001000100010001000163
:100590000001000100010001000100010001000153
:1005A0000001000100010001000100010001000143
:1005B0000001000100010001000100010001000133
:1005C0000001000000010001000100010001000124
:1005D0000001000100010001000100010001000113
:1005E0000001000100010001000000000001000006
:1005F00000000000000100010001000100010001F5
:1006000000010001000100010001000100010001E2
:1006100000010001000100010001000100010001D2
:1006200000010001000100010001000100010001C2
:1006300000010001000100010001000100010001B2
:1006400000010001000100010001000100010000A3
:100650000001000100010001000100010001000192
:100660000001000100010001000100010001000182
:100670000001000100000000000100000000000077
:10068000000100010001000100010009025B0003FC
:100690000100A0FA09040000010301010009211171
:1006A000010001224000070581030800020904013E
:1006B00000020300000009211101000122220007AD
:1006C000058203200001070503032000010904023D
:1006D000000103000000092111010001223200077E
:1006E0000584032000021201000200000008091224
:1006F00001000100010200010C0346004B0036001E
:10070000340030000000120362006C006F006300D0
:100710006B0062006F0079000000040309041124DB
:100720001FBECFEFD4E0DEBFCDBF04B603FE18C0BE
:100730008091600390916103A0916203B091630383
:100740008730904BA740B04B59F410926003109241
:1007500061031092620310926303E0E0F8E30995ED
:1007600023E0A4E9B1E001C01D92A036B207E1F791
:1007700011E0A0E0B1E0ECEFF8E402C005900D92CA
:10078000A439B107D9F70E94961E0C9453240C94F7
:1007900000002091E4003091E50095E6A901209148
:1007A000EC00822F817020FF06C08091E80080FF5E
:1007B00006C080E008952091E80022FD1AC08091D3
:1007C0004E03882389F0853089F08091EB0085FD08
:1007D0000FC02091E4003091E50042175307F9F271
:1007E0009150E1F684E0089582E0089583E0089551
:1007F00081E00895EF92FF920F931F93CF937C01B6
:100800008B010E94C903C82F811117C08091E80095
:1008100085FD0BC08091E8008E778093E8000E94F0
:10082000C903882399F3C82F08C0F70181917F017C
:100830008093F1000150110949F78C2FCF911F913E
:100840000F91FF90EF9008958091500387FF13C0A0
:100850008091E80082FF06C08091E8008B7780934A
:10086000E80004C080914E038111F2CF0895809179
:100870004E038823D9F38091E80080FFF8CF809160
:10088000E8008E77ECCF982F9093E900242F762FF5
:1008900050E0891731F07091EC002091ED005091FB
:1008A000F00021FD07C09F5F953071F78093E9004C
:1008B00081E008953091EB003E7F3093EB00309162
:1008C000ED003D7F3093ED003091EB0031603093CF
:1008D000EB007093EC002093ED005093F00020911A
:1008E000EE0027FDE0CF80E00895FC0180915603E3
:1008F0009091570386179707A0F06115710529F4A9
:100900009091E8009E779093E80090E06115710562
:1009100051F4911108C08091E80082FF32C080E05C
:100920000895BC01F2CF80914E038823B1F1853048
:10093000B1F18091E80083FD2EC08091E80082FD36
:10094000EACF8091E80080FFE1CF2091F20030E013
:100950006115710519F02830310558F091E0283003
:10096000310509F090E02091E8002E772093E8000F
:10097000CDCF81918093F100615071092F5F3F4F7E
:10098000E7CF80914E03882341F0853041F080917C
:10099000E80083FFC0CF81E0089582E0089583E0FE
:1009A00008950895089508958091430308952FB7F9
:1009B000F8948091580390915903A0915A03B091F3
:1009C0005B032FBF08959C01FC0132969FEF80E0EE
:1009D0004191461751F09F3F19F4411101C0982FE2
:1009E0008F5F8630A9F79F3F09F40895290F311DC5
:1009F00097FD3A95F9016283089520913C03309167
:100A00003D032817390771F090933D0380933C0311
:100A1000E0913A03F0913B03309721F00084F18597
:100A2000E02D099408952091380330913903281757
:100A3000390771F09093390380933803E0913A03BA
:100A4000F0913B03309721F00680F781E02D099467
:100A50000895E0913A03F0913B03309721F0019023
:100A6000F081E02D099480E00895FA01811101C020
:100A7000FB01099480913303982F9E7F29F48170A4
:100A800082608093330308958A34E8F38170886428
:100A9000F8CFAF92BF92CF92DF92EF92FF920F9377
:100AA0001F93CF93DF938901E42FF0E0E653FE4FCD
:100AB000611115C09491392FE92FD8011196EC934B
:100AC00011979C9312963C93DF91CF911F910F91B8
:100AD000FF90EF90DF90CF90BF90AF900895C82F18
:100AE000D0E0E62EF12CE4914E2FAE2EB12CCE01AB
:100AF00066E070E00E945623CC24CA94D12CB60143
:100B00000E947523DB01CC0FDD1FCB0165E570E092
:100B10000E945623C81BD90B8C2F880FC80FC60103
:100B20008E199F09B5010E945623392FD0E0CE01BE
:100B3000B7010E945623692F70E0C601861B970BF0
:100B4000B5010E945623292FC6018C1B9D0BB701AE
:100B50000E945623692F70E0C601861B970BB501D2
:100B60000E945623892FA230B10589F040F41097D6
:100B700009F4A3CF119779F0932F322F9ECFA43091
:100B8000B10561F078F0169709F497CFF5CF9E2F55
:100B9000E32F382F92CF9E2FE22F8FCF932F3E2F10
:100BA000E82F8BCFE32F342F922F87CF80E008954B
:100BB000F894E82FE295EF70F0E031A1282F2F7024
:100BC00081E090E001C0880F2A95EAF7982F909570
:100BD000932391A392A1892B82A378940895909155
:100BE0000D0292FF06C0282F28712830F9F4877F64
:100BF000846093FF06C0282F28712831F1F4877E86
:100C0000846120910E0220FF06C0382F38713830E1
:100C1000D9F4877F816021FF06C0282F28712831F1
:100C2000D1F4877E816194FD877E0895282F2471F9
:100C30002430F9F68B7F8860DCCF282F2471243193
:100C400001F78B7E8861DDCF382F3171313019F794
:100C50008E7F8860E0CF282F2171213121F78E7E91
:100C60008861E1CFCF93DF93EC0182389105A9F140
:100C7000D8F58133910509F496C048F5893291057C
:100C800009F48AC08A9709F495C0C11522E5D207F4
:100C900008F0B6C0C11531E5D30708F02BC1C83E36
:100CA000D10508F09CC0C03ED10560F5C83AD10519
:100CB00008F087C0C53AD10508F0F2C0C130D105AF
:100CC00009F12097F9F0C430D105E0F440C0853334
:100CD000910509F45AC0C997C1F680910D0283703D
:100CE00089F0C0EED0E00EC0833E910599F170F41A
:100CF000803E910501F1823E910539F680910D0209
:100D000082FD21C0CE01DF91CF910895863E9105ED
:100D100061F1873E910571F1843E910509F0B5CFEF
:100D200080910E0281FFEECF80910D02C7EED0E0E0
:100D300084FD0DC0E7CF80910D0280FD0FC1909121
:100D40000E0290FFDFCFC3EED0E084FFDBCFD0E018
:100D5000C0E0D8CF80910D0282FD03C190910E02B8
:100D600090FDBFCF84FFCECFF2CF80910D0283FDE7
:100D7000DDCFC8CF80910D0283FDF6C090910E02A9
:100D800091FFF0CFC4EED0E0BDCF80910D0285FF82
:100D9000B9CFC9E2D0E0B6CF80910D0285FFB2CFC6
:100DA000C5E3D0E0AFCF80910D0286FFABCFCAE2A2
:100DB000D0E0A8CF80910D0286FFA4CFC1E3D0E0A0
:100DC000A1CFCF3BD10518F6C85AD0E0CC0FDD1F1C
:100DD000C25EDE4F0990D881C02DD46493CFC11577
:100DE00040E5D40708F067C0C11580E4D80708F0D3
:100DF0005FC0CE019A9581159F4108F483CFA7CF9C
:100E0000C11536E5D30730F5C11545E5D40708F01F
:100E10008CC0C11584E5D80708F082C09C2F969538
:100E200096959E0123703327C115D34508F467C0FA
:100E3000C1E0D0E002C0CC0FDD1F2A95E2F7892F78
:100E400090E075E0880F991F7A95E1F7C82BD92BB0
:100E5000DA6858CFC1158AE5D80778F4C11529E5B5
:100E6000D20708F06DC0C11538E5D30708F46FCF7D
:100E7000DC2FCC27C06FD06A45CFCE0190568115AC
:100E8000904208F064CF8D2F8F710E94EF0590E0A3
:100E9000982F882788279F719C012C2BE9014EC031
:100EA000C55AD0E0C55EDE4FC881D0E0D0642ACFFD
:100EB000DF70D06A27CFCE01A4E096958795AA95DA
:100EC000E1F783702C2F26952695237030E0B5E04E
:100ED000220F331FBA95E1F7382B8C2F8370C1E0B6
:100EE000D0E002C0CC0FDD1F8A95E2F7C22BD32BD6
:100EF000DC6808CFDC2FCC27C16FD06A03CFC1E0FC
:100F0000D0E002C0CC0FDD1F2A95E2F7892F90E0D8
:100F1000E5E0880F991FEA95E1F7C82BD92BE8CFB8
:100F2000DC2FCC27C46FD06AEDCE8C2F0E94EF054A
:100F3000C82FD0E0DC2FCC27CC27DF71D062E2CEE7
:100F40008C2F8F700E94EF0534E0D695C7953A95A7
:100F5000E1F7CF709C2FEC01D069D4CEC9E3D0E08B
:100F6000D1CEC2EED0E0CECEC6EED0E0CBCE8091D8
:100F7000FD0181111092FD01089580959091FC0171
:100F800098239093FC0108958091F1019091C00104
:100F9000981301C008958F5F8770FACF282F892F8B
:100FA0006EE00E944D23820FA82FA770869586952C
:100FB000869590E063E070E00E945623FC01E156C4
:100FC000FE4F50E040E080E0219130E00A2E02C068
:100FD000369527950A94E2F721703327042E01C035
:100FE000220F0A94EAF7822B4F5F5F4F433051057F
:100FF00059F70895CF93DF93282F362F892F6EE06E
:101000000E944D23820F982F9770E1E001C0EE0FF0
:101010009A95EAF786958695869590E063E070E06C
:101020000E945623DC01A156BE4F50E040E0632FE2
:1010300070E08D91ED0121979B01042E02C0369541
:1010400027950A94E2F72170219528272E23282737
:1010500028834F5F5F4F4330510559F7DF91CF91A0
:10106000089580933F037093410360934003809100
:101070004E038430F9F48093E9008FEF9091E800FB
:10108000815095FD06C095ED9A95F1F7000081110C
:10109000F5CF8091E80085FF0DC050E040E063E0AF
:1010A00070E08FE393E00E94FA038091E8008E776E
:1010B0008093E8000895BC0184E00C943108BC01E1
:1010C00083E00C943108CF93DF93EC0181E08093AF
:1010D000E9008FEF9091E800815095FD06C095EDF5
:1010E0009A95F1F700008111F5CF8091E80085FF16
:1010F00014C050E040E068E070E0CE010E94FA03C6
:101100008091E8008E778093E80088E0FE01A4E4F7
:10111000B3E001900D928A95E1F7DF91CF910895A8
:1011200081E08093E00080E28093D8001092C900B3
:101130008FE19EE40197F1F700C0000087E090EB9B
:10114000DC018093600390936103A0936203B093EA
:10115000630388E19CE00FB6F894A8958093600043
:101160000FBE90936000FFCF8091330380FD0AC0D3
:10117000E1E3F2E0118210821282339653E0E3330E
:10118000F507C1F73C9A38B13F7E28B120614FB7CF
:10119000F89481E392E0FC015191CF0168E028B915
:1011A000000000C057FF38B9550F000000C000C054
:1011B00000C038B900C06A9591F7F3E083339F0708
:1011C00051F74FBF8FE594E00197F1F700C00000A1
:1011D0000895EF92FF920F931F93CF93DF938C01AB
:1011E000C1E3D2E0F12CE12CF80194816091350348
:1011F00080913403FBE2EF16F104FCF49923F9F03B
:101200009E01409136030E9449052FEFE21AF20A2F
:10121000239686E5E816F10439F70E94B408F80130
:10122000848190E00196817099278483DF91CF912A
:101230001F910F91FF90EF900895992309F39E015C
:1012400040E0E1CF4F925F926F927F928F929F9298
:10125000AF92BF92CF92DF92EF92FF920F931F93C4
:10126000CF93DF938C01FC01C481CC2ED12CF12CC7
:10127000E12CA7019601C701B6010E941824A7011D
:1012800096010E9418242B013C0140E2C42ED12C6F
:10129000CC1AD1080D2C000CEE08FF0825E530E033
:1012A00040E050E00E9418244B015C01A701960128
:1012B000C701B6010E941824A70196010E941824B4
:1012C0009B01AC01240D351D461D571DC501B40100
:1012D0000E943124D22E822F90E0F9E2F21708F416
:1012E00043C063E070E00E94562397FD01969595F8
:1012F0008795C82FC09531E3E32E32E0F32ED0E07E
:1013000085E5C82ECD188C2DD1FD8D2D97014C2F44
:10131000609135030E944905DF5F53E0E50EF11C43
:10132000D63589F70E94B408F801948181E09923A9
:1013300019F0903219F48FEF8093190180911901FF
:10134000890FF8018483DF91CF911F910F91FF9056
:10135000EF90DF90CF90BF90AF909F908F907F9055
:101360006F905F904F90089525E530E0A901481BEC
:10137000590BCA01B6CF0F931F93CF93DF93C1E3ED
:10138000D2E0FE01118210821282339683E0E333B1
:10139000F807C1F710E000E080912F02082E000C42
:1013A000990B081719078CF180911801082E000C71
:1013B000990B801791074CF19E0140913603609183
:1013C0003503809134030E9449050F5F1F4F239618
:1013D0000635110509F70E94B40880911701909114
:1013E0002F02980F90932F0220911801280F20931D
:1013F0001801121614F495351CF08195809317018D
:10140000DF91CF911F910F910895198218821A824E
:10141000DCCFBF92CF92DF92EF92FF920F931F9398
:10142000CF93DF93FC018281DD24DA9480FD02C03A
:10143000DD24D39401E312E0D0E0C0E046E5B42E11
:10144000F80111821082128234E0E32EF12CC12CBB
:1014500080912E028C0D87350CF43DC06B2D0E94BF
:101460006723892F082E000C990B8C179D0791F488
:101470008091360390E0B7010E9456239595879599
:10148000959587959801482F609135038091340395
:101490000E944905CD0CF1E0EF1AF108C9F621963A
:1014A0000D5F1F4FC635D10559F60E94B4088091D3
:1014B0002E0291E0D91215C0811111C085E58093EB
:1014C0002E02DF91CF911F910F91FF90EF90DF904F
:1014D000CF90BF90089587FFC5CF8A5AC3CF815060
:1014E000EECF90E00196BE010E948923E8CFEF92F3
:1014F000FF921F93CF93DF93EC0181E3E82E82E00C
:10150000F82E10E08C8197014091360360913503ED
:10151000810F0E9449051E5F83E0E80EF11C1C3A12
:1015200089F70E94B4089A818C8190FF08C08F5F70
:101530008C83DF91CF911F91FF90EF9008958150A0
:10154000F7CF9091330390FF0CC0E1E3F2E0818389
:1015500060834283339693E0E333F907C1F70C9439
:10156000B40808950F931F93CF93DF9300D00F9289
:10157000CDB7DEB78C018091300281110AC09E0187
:101580002F5F3F4F4FEF6FEF0E9449058A81809395
:101590003002F8016481613069F08091300240E0EE
:1015A000662361F040E0623011F44091300280E047
:1015B00060E004C06091300240E080E00E94A10A37
:1015C000F801848190E0019663E070E00E94892335
:1015D00084830F900F900F90DF91CF911F910F9107
:1015E0000895CF93DF9300D00F92CDB7DEB79091DF
:1015F000330390FF0AC09E012F5F3F4F0E944905B1
:101600004B8169818A810E94A10A0F900F900F90EF
:10161000DF91CF910895CF93DF93EC01E3E3F3E003
:10162000438162818C810E94F10A8C818F5F8C835F
:10163000DF91CF910895CF93DF93EC01EC81F0E03F
:10164000E153FD4F4491E3E3F3E0628181810E9425
:10165000F10A8C818F5F8C83DF91CF910895CF93B6
:10166000DF93C7E5D2E060E0CE010E94E42321963B
:10167000C11584E0D807B9F7DF91CF9108956F9233
:101680007F928F929F92AF92BF92CF92DF92EF9212
:10169000FF920F931F93CF93DF938FECC82E83E0BD
:1016A000D82E9FECE92EF12CE701CC58D109360158
:1016B0001BC0F50185909490692DC8010E94E42318
:1016C000682DC80101960E94E42382E0A80EB11C97
:1016D0000E5F1F4FC017D10761F78CE1680E711CB8
:1016E0006C96CE15DF0529F08E010C5111095301BE
:1016F000E0CF7E018CE8E80EF11C8CE8C80ED11C0E
:101700008FEFE81682E0F80679F6DF91CF911F910E
:101710000F91FF90EF90DF90CF90BF90AF909F9090
:101720008F907F906F900895CF93C82F6FEF8111A6
:1017300062E283E290E00E94E423C1110CC0CFEF8B
:101740006C2F84E290E00E94E4236C2F85E290E00D
:10175000CF910C94E423C6E0F3CF80E00E94940B79
:1017600060E086E290E00E94E4230E943F0B0E942A
:101770002F0B81E00C94940B0F931F93CF93DF9367
:10178000282F862F90E06CE170E00E945623C42F32
:10179000D0E0CC0FDD1FC80FD91F822F90E06CE87E
:1017A00070E00E945623C80FD91FCE0187960E9471
:1017B000D023082F10E0102F0027CE0188960E941A
:1017C000D0239801282BC901DF91CF911F910F9150
:1017D0000895462F843038F4753028F46E3018F4AC
:1017E000672F0C94BC0B90E080E00895CF92DF92BD
:1017F000FF920F931F93CF93DF936C0100915F03D0
:101800008091FE01082BC7E0D0E010E0FC2EC8015B
:101810000C2E02C0959587950A94E2F780FD0CC0C6
:101820002197A0F7F12C8F2DDF91CF911F910F9170
:10183000FF90DF90CF900895B6018C2F0E94E90BA6
:101840000E943206019761F3EECFCF93DF93EC0154
:101850000E94F60BBE010E94E90BDF91CF910C9420
:101860003206FC01808191810E94250C92959F7027
:10187000963091F058F4925F9F70923058F4803F08
:1018800019F030F4883E30F481E008959A5FF4CF87
:10189000843FD1F380E00895883EB0F3813FD1F7D3
:1018A000F3CF83E290E00E94D023823289F484E275
:1018B00090E00E94D023863059F485E290E00E94A7
:1018C000D02391E0863009F090E0892F817008954F
:1018D00080E0FCCFCF9384E090E00E94D023C82F1B
:1018E00082E290E00E94D023982F8C2FCF91089510
:1018F000CF92DF92EF92FF926B017C010E943A053A
:10190000B701A60188E090E0FF90EF90DF90CF90C4
:101910000C94F6235F926F927F928F929F92AF9278
:10192000BF92CF92DF92EF92FF920F931F93CF93CC
:10193000DF9300D00F92CDB7DEB7182F762E042F8D
:10194000622E9091330390FF29C0E92FE695AE2FC8
:10195000B0E0A15ABE4F8C9180932C029E7F9230B2
:1019600081F59E012F5F3F4F812F0E9449054B81DA
:1019700069818A810E94A10A109334037092350311
:1019800000933603662051F0609133037091340365
:1019900080913503909136030E94780C0F900F9040
:1019A0000F90DF91CF911F910F91FF90EF90DF90FB
:1019B000CF90BF90AF909F908F907F906F905F90EF
:1019C0000895823019F400913603D6CF863019F489
:1019D00010913403D1CF8930D9F3893169F6E951B7
:1019E0008E2F8170582EE695F0E0E653FD4FA590BE
:1019F000B490BB2481E3E82E82E0F82ED12CC12CD8
:101A000096E5892E912CC601B4010E947523812F81
:101A1000511013C0860F9701402F672D0E94490572
:101A2000CA0CDB1C83E0E80EF11C83E3E81683E0BC
:101A3000F80649F70E94B4089FCF861BECCFE3E37A
:101A4000F3E0438121E1421B08F440E021E06281A0
:101A500081810C948A0CE3E3F3E0438121E1420F9E
:101A600008F44FEF21E0628181810C948A0CE3E35A
:101A7000F3E0628121E1621B08F460E021E0438130
:101A800081810C948A0CE3E3F3E0628121E1620F2F
:101A900008F46FEF21E0438181810C948A0CE3E329
:101AA000F3E0818121E0438162818A500C948A0CA9
:101AB000E3E3F3E0818121E043816281865F0C945E
:101AC0008A0C80913703882319F081508093370363
:101AD0006091330370913403809135039091360304
:101AE0000C94780C80913703833018F48F5F8093C7
:101AF00037036091330370913403809135039091E3
:101B000036030C94780C9091330390FF3DC0917094
:101B1000811129C0926090933303662351F0609144
:101B200033037091340380913503909136030E9402
:101B3000780C60913303669570E04BE050E08CE0E8
:101B400091E00E94B623892BA9F010922D0281E02A
:101B50008093290220E04091360360913503809103
:101B600034030C948A0C853210F09864D4CF880F1B
:101B7000982BD1CF81E080932D020E94D7049093BF
:101B8000270280932602E3CF089580913303869540
:101B9000815009F484E261E00C94830D8091330359
:101BA00086958F5F853208F081E061E00C94830DAB
:101BB0009091330390FF07C09695981720F09617E1
:101BC00010F40C94CE0D61E00C94830DE3E3F3E08C
:101BD00083E0808311828FEF82838383148260810C
:101BE0007181828193810C94780C69EE7EEF90E094
:101BF00080E00E94022460E082E090E00E94E42302
:101C000060E083E090E00E94E4231092FE0160E037
:101C100084E090E00E94E42360E082E290E00E9491
:101C2000E42360E085E090E00E94E42360E086E049
:101C300090E00E94E4236FEF87E090E00E94E423AD
:101C400040E050E0BA0188E090E00E94F62360E0B6
:101C50008DE090E00E94E42340E050E0BA0188E18A
:101C600090E00E94F62360E087E190E00E94E42388
:101C700040E050E0BA018CE190E00E94F62370E071
:101C800060E080E290E00E94022440E050E0BA016F
:101C900088E190E00E94F62380E00E94940B0E946D
:101CA000AD0B40E050E0BA018FE090E00E94F623D7
:101CB00040E050E0BA0183E190E00C94F6234F92AB
:101CC0005F926F927F928F929F92AF92BF92CF92CC
:101CD000DF92EF92FF920F931F93CF93DF93CDB7D5
:101CE000DEB72A970FB6F894DEBF0FBECDBF8E01C8
:101CF0000F5F1F4F8AE0F80111928A95E9F79CE483
:101D0000E92E91E0F92E680121E5422E21E0522EC4
:101D100066246394712C4FE5842E41E0942EF701E4
:101D200081917F018F3F09F445C0F894E82FE29537
:101D3000EF70F0E021A18F70A30102C0440F551F86
:101D40008A95E2F7CA01922F982B91A392A18095D0
:101D5000892382A3789400C0E1E5F1E021E030E03E
:101D6000B12CA12C41914F3F09F489C0A42FA29519
:101D7000AF70B0E090968C9190E04F7002C0959556
:101D800087954A95E2F780FD7AC0C901A82AB92A49
:101D9000220F331F8E169F0629F7F7013197808196
:101DA0008F3F11F00E94D80550EA5A95F1F7F601DD
:101DB000B182A082F2E0CF0ED11C4E145F0409F074
:101DC000AECF4AE050E0B80183E092E00E94C32326
:101DD000FF24F394009709F4F12C892B09F452C0E5
:101DE0008AE0F801A3E0B2E001900D928A95E1F754
:101DF00081E0809301020E94D704909300028093B7
:101E0000FF012091FF01309100024FB7F8948091BB
:101E1000580390915903A0915A03B0915B034FBFAF
:101E2000821B930B059790F180910302909104021D
:101E300090931D0280931C028091050290910602EE
:101E400090931F0280931E028091070290910802D6
:101E500090932102809320028091090290910A02BE
:101E6000909323028093220280910B0290910C02A6
:101E700090932502809324021092010207C090E003
:101E800080E084CF809101028111BBCF8F2D2A96F3
:101E90000FB6F894DEBF0FBECDBFDF91CF911F917B
:101EA0000F91FF90EF90DF90CF90BF90AF909F90F9
:101EB0008F907F906F905F904F9008958091FC017C
:101EC0009091FB01892B809396019091FD019923BC
:101ED00091F0892B8093960120E088E991E0FC0144
:101EE0003191CF0131112F5FF1E08E399F07B9F7A2
:101EF00021110E94B70748E050E063EF71E086E9E6
:101F000091E00E94C323892BA9F088E0E6E9F1E083
:101F1000A3EFB1E001900D928A95E1F7E0913A03C9
:101F2000F0913B03309731F00280F381E02D86E998
:101F300091E00994089590E080E00E94130590E0FC
:101F400080E00E94FD041092FB010C945E0F8093D0
:101F50005F030C949B0F80915F03982F96709630CF
:101F600019F488600C94A70F877FFCCF21E030E044
:101F700001C0220F8A95EAF7209580915F038223A2
:101F80000C94A70F9091F201809589238093F20120
:101F9000282F277091F4282F082E000C330B92174E
:101FA000130659F090910E0292FD07C08595859514
:101FB00085950E94B60F1092F2010895CF93C091BB
:101FC0000E02C2FB992790F9981799F080FBC2F98D
:101FD000C0930E0260910D0284E090E00E94E42321
:101FE0006C2F82E290E00E94E42382E0CF910C9477
:101FF000C20FCF91089521E030E001C0220F8A95F1
:10200000EAF780915F03822B0C94A70F8093FE0167
:102010000C949B0F1092FC01E8E9F1E086E0DF01EF
:102020001D928A95E9F70C949B0F1F93CF93DF9332
:10203000CDB7DEB7AA970FB6F894DEBF0FBECDBFFF
:1020400080E593E02091F100DC012D93CD01B3E018
:1020500088359B07B9F780915103833009F470C02C
:10206000B8F4813009F447C0823009F4B1C08091DE
:10207000E80083FF88C280915003909151039A3009
:1020800008F081C2E92FF0E0EB5AFB4D0C949D2340
:102090008A3009F48CC08B3009F46FC0893039F76D
:1020A00080915003813219F7809154039091550328
:1020B000009711F00297D9F68091E800877F80930E
:1020C000E8008091E80082FF36C08091F200823003
:1020D00031F48091F100813011F0863021F480914B
:1020E000F100809343038091E8008B778093E800B0
:1020F0000E942404BCCF80915003813A09F0B7CFED
:102100008091E800877F8093E8008091540390914C
:102110005503892B61F468E084E493E070E00E9449
:1021200075048091E8008B778093E800A0CF60E091
:1021300090E080E0F3CF80914E038111C2CF97CF22
:1021400080915003813A09F092CF8091540390918D
:102150005503892B09F08BCF8091E800877F80930E
:10216000E8008091E80080FFFCCF80911A01809305
:10217000F1008091E8008E77B9CF809150038132D1
:1021800009F075CF8091540390915503892B09F084
:102190006ECF8091E800877F8093E8000E9424043E
:1021A0008091520380931A010E940A1060CF80919F
:1021B0005003813209F05BCF8091E800877F8093E4
:1021C000E8000E94240480915303809342034FCF80
:1021D00080915003813A09F04ACF8091E800877FCF
:1021E0008093E8008091E80080FFFCCF809142035B
:1021F000BECF803899F0823809F0C5C18091540370
:102200008F70853008F0BFC18093E9008091EB00AA
:1022100085FB882780F91092E90006C080914C0365
:1022200090914D03911182609091E800977F909377
:10223000E8008093F1001092F1008091E8008E7721
:102240009EC1882309F48CC1823009F09CC1809121
:10225000520381118FC1809154038F702FEF280F8B
:10226000243008F090C18093E9002091EB0020FF1A
:1022700081C1933031F48091EB0080628093EB0058
:1022800079C19091EB0090619093EB0021E030E0F8
:1022900001C0220F8A95EAF72093EA001092EA0023
:1022A0008091EB008860EACF81116DC110915203DB
:1022B0001F778091E3008078812B8093E3008091E9
:1022C000E800877F8093E8000E9424048091E80062
:1022D00080FFFCCF8091E30080688093E30082E080
:1022E000111183E080934E034EC18058823008F074
:1022F0004AC120915203309153032C3DE3E03E0745
:10230000A1F583E08A838AE289834FB7F894DE01DE
:10231000139620E03EE051E2E32FF0E050935700A7
:10232000E49120FF03C0E295EF703F5FEF708E2FC6
:1023300090E0EA30C0F0C7968D939D932F5F2431D3
:1023400059F74FBF8091E800877F8093E8006AE2E9
:1023500070E0CE0101960E9475048091E8008B77B1
:102360008093E80010C1C096E7CF8091540390910C
:102370005503432F55274330510509F44AC078F5DA
:102380004130510509F47AC08BE590E0EBE8F6E0C6
:102390004230510509F0F7C02091E800277F2093D3
:1023A000E80020915603309157038217930708F4F1
:1023B0009C0140E02115310509F065C0411163C061
:1023C0008091E80082FDC9CF80914E03882329F2D5
:1023D000853019F28091E80083FFF2CFBECF413201
:1023E000510509F43CC04232510509F0CCC083309C
:1023F000910508F0C8C0FC01EE0FFF1FE957FE4F22
:102400000190F081E02D8C579E4FDC018C9190E083
:102410001AC0332721303105D1F02115310561F083
:102420002230310509F0AFC0E8EFF6E0E4918E2FDD
:1024300090E0E8EFF6E007C0EAE1F7E0E4918E2FE4
:1024400090E0EAE1F7E0009709F49DC0A5CFE6E04F
:10245000F7E0E4918E2F90E0E6E0F7E0F4CF8330F0
:10246000910508F090C0880F991FFC01E357FE4FBB
:102470000190F081E02D89E090E08ECF82E190E044
:10248000E6EEF6E089CF80914E03882309F465CF0C
:10249000853009F462CF8091E80083FD5ECF8091A2
:1024A000E80082FD8DCF8091E80080FF83CF80918E
:1024B000F20090E02115310519F08830910550F0B7
:1024C00041E0089709F040E08091E8008E77809322
:1024D000E80070CF44914093F100319621503109CA
:1024E0000196E8CF803809F04EC08091E800877FE0
:1024F0008093E80080914F038093F1009ECE81117C
:1025000042C0109152031230F0F58091E800877FAD
:102510008093E80010934F030E942404112311F0CC
:1025200084E005C08091E30087FDFACF81E08093CD
:102530004E0342E061EC81E00E94430442E261EC20
:1025400084E00E94430442E261EC82E00E94430482
:1025500042E260EC83E00E94430480914E0313C08A
:1025600080915203813079F481E0933009F080E06A
:1025700080934D031092E9008091E800877F80935B
:10258000E8000E9424048091E80083FF0AC0809143
:10259000E800877F8093E8008091EB008062809361
:1025A000EB00AA960FB6F894DEBF0FBECDBFDF9149
:1025B000CF911F910895882321F00E94BD070C94AC
:1025C0005E0F0895882339F09091FC01982B909329
:1025D000FC010C945E0F0895882381F19CEF980F05
:1025E000913A78F4E8E9F1E02EE931E0919189132C
:1025F00003C0DF0111971C922E173F07B9F70C9407
:102600005E0F90E2980F983050F4877091E001C00F
:10261000990F8A95EAF7892F0E94BD07F0CF9BE5B5
:10262000980F933020F490E080E00C941305885AC2
:10263000873120F490E080E00C94FD040895CF935E
:10264000C82F882309F44EC08CEF8C0F813AF8F420
:10265000E8E9F1E08EE991E0DF012D91C21759F030
:102660008A179B07D1F76C2F86E991E00E94E3045B
:10267000CF910C945E0F2191C21303C0DF0111971B
:102680001C928E179F07B9F70E945E0FECCF80E275
:102690008C0F883068F4C77021E030E001C0220F51
:1026A000CA95EAF78091FC01822B8093FC01E0CF70
:1026B000EBE5EC0FE33040F4F0E0E55EFE4F8081A7
:1026C00090E0CF910C941305C85AC73158F4EC2F01
:1026D000F0E0EE0FFF1FE25EFE4F80819181CF910F
:1026E0000C94FD04CF9108951F93CF93DF93182F7F
:1026F000D0E0C0E0893311F4C0E5D0E0812F0E9422
:102700001F13209731F4812FDF91CF911F910C94EB
:10271000EC128FE99FE00197F1F700C000002197CC
:10272000F0CF0F931F93CF93DF93C62FD42F022F99
:10273000FC0182818823A1F060935E030E94D7048C
:1027400090935D0380935C03C77081E001C0880FA4
:10275000CA95EAF7DF91CF911F910F910C94E21285
:1027600080915E03681340C020915C0330915D034B
:102770004FB7F8948091580390915903A0915A0350
:10278000B0915B034FBF821B930B883C910560F5B2
:1027900010E21D0F6D17B9F080E2860F883040F40B
:1027A000C77081E001C0880FCA95EAF70E94DB126A
:1027B000183048F481E09D2F977001C0880F9A95DA
:1027C000EAF70E94E212802F0E947413183098F4E6
:1027D000D77081E001C0880FDA95EAF7DF91CF91D9
:1027E0001F910F910C94DB12C77081E001C0880F1C
:1027F000CA95EAF7F3CFDF91CF911F910F9108951A
:102800004F925F926F927F928F929F92AF92BF9200
:10281000CF92DF92EF92FF920F931F93CF93DF93AC
:1028200000D000D00F92CDB7DEB78C01FC018381C0
:102830009481892B31F08081918189238F3F09F028
:1028400073C50F900F900F900F900F90DF91CF9165
:102850001F910F91FF90EF90DF90CF90BF90AF90BE
:102860009F908F907F906F905F904F9008950E94FF
:10287000F60BF82E682F89819A810E94FA076981E8
:102880007A818F2D0E94E90B7C01F80182818823D7
:1028900009F43DC5970122513F452031310508F02B
:1028A00009C58FEF93E00E94D023FEEEEF0E47E5BF
:1028B000842E42E0942E882399F18091F201877052
:1028C00009F4BFCFF8018281882309F4BACF80913F
:1028D0000E0282FDB6CF82E00F900F900F900F9006
:1028E0000F90DF91CF911F910F91FF90EF90DF90AC
:1028F000CF90BF90AF909F908F907F906F905F90A0
:102900004F900C94C20F811424E09206B1F2C401DE
:102910000E94D023811101C0EA943FEF831A930AE9
:10292000E110F1CF1C821B824424439474016FEFA9
:10293000E61AF60AC4010E94D02389831A828823EA
:1029400009F4BBCF9FEF980F933000F58A8349823B
:1029500072E0870E911CC7010E94D0238B838823CD
:1029600009F4ABCFCE0101967C01F701208122232F
:10297000E9F2213009F04AC091818281913041F41D
:10298000F2E0EF0EF11C0E94741309C04701EACF78
:10299000923049F422E0E20EF11C0E941F133FEF37
:1029A000E31AF30AE2CF933031F432E0E30EF11C84
:1029B0000E94EC12F4CF943021F06FEFE61AF60A81
:1029C000EECF72E0E70EF11C50E040E0D701119627
:1029D000F701D180682F6053770B9B016A30710536
:1029E00050F041505109D8F28FE99FE00197F1F77B
:1029F00000C00000F6CFCA016AE070E00E945623D2
:102A0000A901480F591F8D2D7D01E0CFE22FF0E085
:102A1000E85CFE4F5490822F86958695869590E0CF
:102A2000FC01E85DFE4F64902770712C022E02C0FD
:102A3000759467940A94E2F7E1E06E227724FC0132
:102A4000E85EFE4FA490B12C022E02C0B594A7946C
:102A50000A94E2F7F1E0AF22BB24FC01E85FFE4FED
:102A6000C490D12C02C0D594C7942A95E2F721E0F6
:102A7000C222DD246114710419F081EE0E941F133B
:102A8000A114B10419F086EE0E941F13852D0E9437
:102A90007413AB2819F086EE0E94EC12672819F027
:102AA00081EE0E94EC12CD2809F479CF8CE26BCF35
:102AB00081E00E94FB0F0E94AB0FFFCE81E00E94DD
:102AC000B60FF9CF82E0F5CF25EFE2162CE5F2063E
:102AD00009F469C008F463C066EFE6166CE5F60613
:102AE00009F465C0882309F430C410925E0373E0D2
:102AF000E7167DE5F70608F061C08AEFE8168CE579
:102B0000F80630F4C70182509C45449708F062C033
:102B10000E946A0C90930E0280930D02F1E1EF1671
:102B2000FCE5FF0609F440C108F0B5C039E0E31642
:102B30003CE5F30609F422C108F07AC075E0E71617
:102B40007CE5F70609F412C108F05CC093E0E916D1
:102B50009CE5F90609F400C108F004C180910D025A
:102B60008160F2E0EF16FCE5FF0609F4F8C0609121
:102B70000D02F0900E0284E090E00E94E4236F2D9D
:102B800082E290E00E94E4230E940A1096CE27E29F
:102B900045EE65EEB8C326E241EE60EEB4C327E22F
:102BA00045EE64EEB0C326E241EE62EEACC327E22E
:102BB00045EE66EEA8C328E241E0EBCF91E6E916C8
:102BC0009DE5F90609F4A4CFE5EAEE16EDE5FE066B
:102BD00009F49ECF26E1E2162CE5F20609F0CEC3F9
:102BE0008091FC018A7A91E009F490E090939E0133
:102BF00069E2811165E386E991E00E94E3040E94A5
:102C00005E0F5BCE80910D02806227E0E2162CE51C
:102C1000F20609F4A4C080910D02806138E0E31649
:102C20003CE5F30608F49BC080910D02806497C0D8
:102C300080910D028B7F6DE0E6166CE5F60609F4D7
:102C40008EC098F48BE0E8168CE5F80609F4A0C075
:102C500080910D028C609CE0E9169CE5F90608F471
:102C60007EC080910D028D7F7AC080910D028F7E93
:102C7000EFE0EE16ECE5FE0609F471C080910D025E
:102C8000877FF0E1EF16FCE5FF0608F468C080914D
:102C90000D028F7D64C02DEFE2162CE5F20609F4DB
:102CA0007FC060F565E1E6166CE5F60609F48AC0BA
:102CB00088F483E1E8168CE5F80609F47FC008F48F
:102CC00077C00E940A1090910D02892F97FB87F917
:102CD000805845C0EBEFEE16ECE5FE0609F44AC05D
:102CE00008F05AC080910E0281602AEFE2162CE5AE
:102CF000F20609F03CCF80930E0239CF31E0E316A3
:102D00003DE5F30609F46AC098F480910E028C7FC9
:102D10007FEFE7167CE5F70671F3B0F180910E02C4
:102D2000982F909591708E7F892B90FB81F9E3CF3E
:102D300091E6E9169DE5F90609F456C0E5EAEE16B6
:102D4000EDE5FE0609F457C0F2E0EF16FDE5FF06DB
:102D500009F00DCF60E043C080910D028260809346
:102D60000D0205CF80910D028460F9CF80910D0294
:102D70008860F5CF80910E028260BDCF0E940A105C
:102D800080910D028068EBCF80910E028360B3CFFB
:102D900080910D028E7FE3CF80910E028E7FABCFAC
:102DA00080910E028D7FA7CF80910D028F7BD7CFB0
:102DB0000E940A1080910D028F77D1CF80910D0271
:102DC000837FCDCF80910D0282FB992790F921E07E
:102DD000922790FB82F990FB83F9C1CF61E08EE0EE
:102DE00090E00E94E423C3CE90910D02892F8F7E44
:102DF00094FF8061B4CF90910D02892F8E7F90FF58
:102E00008160ADCF85E3ACC281608093330361E024
:102E100086950E94830D51CD45EC5DE06EEC7DE022
:102E20000E9435054ACD4EEC5DE065EC7DE0F8CFC3
:102E300048E55DE06FE47DE0F3CF47E35DE063E408
:102E40007DE0EECF4FE15DE06BE27DE0E9CF4BE26C
:102E50005DE06FE17DE0E4CF42E75DE061E67DE0CB
:102E6000DFCF61E081E0D5CF65E082E00E94D80D40
:102E700024CD68E086E0FACF64E18FE0F7CF67E128
:102E800085E1F4CF62E289E1F1CF61E083E2C1CF75
:102E90000E940A108FEF94E3ECE081509040E040F4
:102EA000E1F700C000000E94900881E08DC280E040
:102EB0008BC2C7010E94CE07D82E97C22F2D2F702C
:102EC000C22E8F2D807F19F0C29490EFC922DD2091
:102ED000B9F0CC2069F080E28E0D883010F08110BE
:102EE00009C08091FC01C82AC092FC010E945E0FBB
:102EF0008E2D4DC08091FB01C82AC092FB01F6CFF8
:102F00008E2D0E94EC12CC2009F443C080E28E0D7D
:102F1000883010F0811004C08C2D0E94BD0706C0BF
:102F2000C0948091FB01C822C092FB010E945E0FF9
:102F300030C03F2D3F70C32E8F2D807F803219F01F
:102F4000C29480EFC822882089F061E0861609F4D7
:102F50007EC0DD2009F488C0BB2009F47EC0F801E2
:102F6000858180FFC5CF8F70858377C020910E0249
:102F700022FF4AC0DD2009F441C0CC2039F0809105
:102F8000FC01C82AC092FC010E945E0F80E00E94F2
:102F90001F13692D6850770B6430710510F40E947F
:102FA0002905AA2009F44DCC8091F20180FD49CC7D
:102FB000F80112828595859585950E94FB0FC801C1
:102FC0000E9400148091F2018595859585950F905A
:102FD0000F900F900F900F90DF91CF911F910F9155
:102FE000FF90EF90DF90CF90BF90AF909F908F9029
:102FF0007F906F905F904F900C94B60F80E00E948E
:10300000EC12CC2031F288CFDD20A1F09091FD01AF
:103010008C2D892BB11003C00E94E212BACF71E04F
:10302000B712FACF22FDB5CF981709F4B2CF80932B
:10303000FD01AFCFB11006C00E94B7078C2D0E94D2
:10304000DB12A7CF81E0B81609F4A3CFF5CFDD20BE
:1030500031F095E09B1508F49CCF8C2DDDCFE4E09A
:10306000EB1508F496CFEACFBB2041F3F9E38F12BA
:1030700009C02FEF37EE63E0215030406040E1F7A8
:1030800000C000008E2D0E94EC1283CF8F2D8695FC
:103090008695837061F0813009F07BCFC701937012
:1030A000D11002C090E080E00E94FD0472CFC70101
:1030B0009370D11002C090E080E00E94130569CFA8
:1030C0008F2D837091F5D11064CF4E2D429546958A
:1030D0004770440F440F8E2D8F70042E01C0880F4F
:1030E0000A94EAF72E2D2071E4FE07C02FE030E0AD
:1030F00001C0220F4A95EAF720953F2D3695369567
:103100003370323069F050F44091FE01313029F0D3
:10311000822B84230E9406103CCF842B822BFACF73
:10312000282B8091FE018227F5CF8695DD2011F0B6
:103130008F2D8170882309F42CCF4E2D4295469512
:103140004770440F440F8E2D8F70042E01C0880FDE
:103150000A94EAF72E2D2071E4FE07C02FE030E03C
:1031600001C0220F4A95EAF720953F2D36953695F6
:103170003370323069F050F440915F03313029F000
:10318000822B84230E94A70F04CF842B822BFACF9B
:10319000282B80915F038227F5CF7F2D7F70F72E3C
:1031A000DD2029F0872F0E94FB0F8E2D35CF8E2D2D
:1031B0000E94DB128F2D0E94B60FEBCE8E2D92EF68
:1031C0008916B1F1981570F0E0EF8E16D1F0F1EF9D
:1031D0008F1691F0DD2009F45DC0B11089CE8F2DDE
:1031E0008F712AC023EF821651F134EF8312F2CF90
:1031F00080910E0282FF2FC08F2D8F71DD20D9F2BA
:103200001BC0DD2081F064E06B1508F4C2CE2F2DC9
:103210002F7181E090E001C0880F2A95EAF7909124
:103220005F038927AFCF75E07B1508F4B2CEEFCFEF
:103230008F2D8F71D110BFCF0E94FB0FAACE80E0DF
:10324000DD2009F49FCF9F2D9F7181E001C0880F81
:103250009A95EAF797CFDD2091F08F2D8F71F82E98
:103260000E94FB0F80910E0282FD07C08F2D880FF8
:10327000880F880F83608093F2018F2DDDCF81E06E
:103280000E94C20F91E09B1508F083CE82E00E945D
:10329000C20F7FCEBB2059F0893309F0F3CEEFEF98
:1032A000F7EE23E0E150F0402040E1F7E9CE8F2D2A
:1032B0008F7181CFF0E1EF16FFE5FF0609F4F8CB3F
:1032C00021E1E2162FE5F20609F4FCCB63EFE616E6
:1032D0006CE5F60609F45FCC08F0F6CB98EDE9163C
:1032E0009CE5F90609F453CCE9EDEE16ECE5FE0693
:1032F00009F461CCF7EDEF16FCE5FF0609F0F2CB1F
:1033000026E241EE61EEC8010E949113D6CA30E177
:10331000E3163FE5F30609F4D1CB61E1E6166FE56C
:10332000F606A1F682E0CBCB85E0DE011196019096
:103330000D928A95E1F7F801228189819A81211104
:1033400096CA0E94CE07F82E9ACAF6E1EF16FCE55F
:10335000FF0609F083C080919E01811153CD89E25F
:10336000E8E9F1E02EE931E09191891303C0DF0132
:1033700011971C922E173F07B9F741CC2AE5E216A8
:103380002DE5F20609F491CD68F4E1146CE5F6063A
:1033900009F47ECD7EEDE7167CE5F706B9F40E94D0
:1033A000F50D8BCA8BE5E8168DE5F80609F47FCD9F
:1033B0009CE5E9169DE5F90649F480910E0282FB31
:1033C000882780F991E089270E94DE0FF801828129
:1033D000E080F180882309F46CCDC7010E94F60BD0
:1033E000D82E682FC7010E94FA07B7018D2D0E94C1
:1033F000E90B0E9432067C01882EF801D280B5804C
:10340000B2943FE0B3228091F2018770C1F0AD2CFD
:10341000DD20B1F08F2D807F803421F080E28E0D91
:10342000883068F080910E0282FD09C082E00E941F
:10343000C20F8091F2018770AA24A3948111A12C5C
:103440009F2C92942FE09222FBE0F91508F4A1CD75
:10345000E92DF0E0E15AFB4D0C949D238091FC0195
:103460008272ECECEE16ECE5FE0609F4F5CC08F001
:103470006DC026ECE2162CE5F20609F4D9CCE8F58D
:1034800063ECE6166CE5F60609F4C6CC28F582EC8A
:10349000E8168CE5F80609F099CF8091330380FF98
:1034A000B3CC8E7F809333036091330370913403E8
:1034B00080913503909136030E94780C10922D0272
:1034C0003FEF60E772E0315060407040E1F700C0CC
:1034D00000000E94B408F1C994ECE9169CE5F906D5
:1034E00009F4A1CC4FE45DE068E57DE0E5ECEE1683
:1034F000ECE5FE0609F494CC69CFF9ECEF16FCE597
:10350000FF0609F49FCC88F437ECE3163CE5F3069C
:1035100009F493CC68ECE6166CE5F60609F056CF94
:1035200043E45DE067E37DE07BCC7AECE7167CE585
:10353000F70609F48CCC41E65DE062E77DE09BECA8
:10354000E9169CE5F90609F46BCC40CFE1EDEE16E7
:10355000ECE5FE0609F490CCB8F42EECE2162CE56E
:10356000F20609F481CC08F47CCC6FECE6166CE52D
:10357000F60609F47ECC6EE089E070EDE7167CE596
:10358000F70609F473CC22CF84EDE8168CE5F80633
:1035900009F478CC78F4E2EDEE16ECE5FE0609F4D9
:1035A0006ECC61E088E1F3EDEF16FCE5FF0609F46F
:1035B00030CC0CCF25EDE2162CE5F20609F465CCF3
:1035C0003DE5E316F30609F478C900CF1F93CF93C6
:1035D000DF938091BF01807FA1F48091BC0188239B
:1035E00081F02091F1011091C0014091BA01A091A8
:1035F000BB01C091BD01D091BE01B42FBA231213FB
:1036000004C0DF91CF911F91089530E0209711F011
:10361000BF3F21F42F5F3F4F2770F1CFC90166E014
:1036200070E00E945623FC01EF53FE4F81818A1304
:10363000F1CF80818413EECF82818111EBCF838122
:1036400094818C1B9D0B883C910520F78091BF01D4
:103650008F7080618093BF01C90166E070E00E94B5
:103660005623FC01EA53FE4F90819F709061908336
:103670008AEB91E00E940014DF91CF911F910C948E
:10368000C407AF92BF92CF92DF92EF92FF920F9357
:103690001F93CF93DF93CDB7DEB761970FB6F89442
:1036A000DEBF0FBECDBF8C0185E0F801DE011D96A7
:1036B00001900D928A95E1F7D8011296EC9012973D
:1036C0008AEBA82E81E0B82E6091BD017091BE01F9
:1036D0006115710509F438C19091BA012091BB01BF
:1036E000892F82238F3F09F42FC14C911196EC91C1
:1036F00011971396CD90DC90F090BC01D601A61BDB
:10370000B70BFF2009F4EBC08091BF01382F307F49
:10371000A83CB10508F0AEC031117AC0FE2C2E13C2
:1037200021C094131FC0E1101DC08F708061809371
:10373000BF01C5010E9400148091BF01F80185837B
:103740008F2D61960FB6F894DEBF0FBECDBFDF910F
:10375000CF911F910F91FF90EF90DF90CF90BF908E
:10376000AF900895CD2829F0842F8E238F3F09F044
:1037700006C180E0F82FF170DF2E2091F101F09169
:10378000C00180FD21C0EE20D9F28091BF0181608F
:103790008093BF01F12CD4CF30E0C90166E070E026
:1037A0000E945623DC01AF53BE4F11968C911197A6
:1037B000E81307C08C91481304C012968C91E8124C
:1037C000E2CF2F5F3F4F27702F13E6CF4D87EE8755
:1037D0008D859E850E94250C292F22952F702230E1
:1037E00058F0243080F49F7059F0D80115969C91C0
:1037F000907F31F4D12C0AC09F7011F08823D1F34F
:10380000805E8830B8F3C8010E940014FD2C98CF68
:103810002E1306C0941304C0F801EE2009F479C0F9
:10382000C8010E94310C882309F1EE20F9F0809143
:10383000BF01803270F02091BA013091BB0138870E
:103840002F831986DB86CA868C87CE0107960E9455
:10385000001486E0F801AAEBB1E001900D928A9580
:10386000E1F70E94E61AFF24F3946ACFC8010E9490
:103870000014F9CF31110AC08AEB91E00E940014C4
:1038800086E0D5011D928A95E9F784CF2E130FC0EB
:1038900094130DC0E1100BC0F8018583C8010E948C
:1038A000001486E0D5011D928A95E9F749CFC80139
:1038B0000E94310C8823D1F2EE20C1F28091BF0129
:1038C000803238F22091BA013091BB013A832983CA
:1038D0001B82DD82CC828E83CE010196B8CFA83CBC
:1038E000B105F8F6FE2CEE2009F22E131FC094133A
:1038F0001DC08091BF0180FD10C0982F907F69F09E
:10390000F8018583903F31F0982F907F905F8F7002
:10391000892B8583C8010E94001486E0F801AAEB78
:10392000B1E001900D928A95E1F70ACFC8010E949B
:10393000310C81118ECF8091BF0181608093BF01D6
:10394000C8010E940014FCCEEE2009F48FCFC801FC
:103950000E94310CF82E882309F488CF86E0F80104
:10396000AAEBB1E001900D928A95E1F78091BA013E
:103970009091BB010E94250C0E94E61AE1CE81E0E5
:103980008E25F8CECF93DF93CDB7DEB767970FB60E
:10399000F894DEBF0FBECDBF4B8B5C8B6D8B7E8BE7
:1039A0008F8B61111092FB011A8A198A85E0FE0142
:1039B0007396DE011D9601900D928A95E1F786E0DF
:1039C000FE013D96DE01179601900D928A95E1F772
:1039D000CE0107960E94411B811112C086E0FE01B4
:1039E0003796DE01119601900D928A95E1F78A854E
:1039F0009B85892B29F08F81988589238F3FB1F58D
:103A00008091F1019091C00189131CC067960FB697
:103A1000F894DEBF0FBECDBFDF91CF91089566E071
:103A200070E00E945623DC01AF53BE4F96E0FE01CA
:103A3000319601900D929A95E1F72093C0010E9472
:103A4000C407DECF90E066E070E00E9456238F53FB
:103A50009E4F0E94411B8823C9F28091F10190E0A2
:103A60000196877099278093F101CACF8091C00198
:103A700090E09C012F5F3F4F277033274091F10169
:103A80004217130661F60E940A101092C0011092AC
:103A9000F10186E0EAEBF1E0DF011D928A95E9F79A
:103AA000AFCF90E080E00E94DE23893E9E4F11F46C
:103AB0000C94510C80E008951F920F920FB60F9254
:103AC00011242F933F934F935F936F937F938F9323
:103AD0009F93AF93BF93CF93DF93EF93FF93D091D7
:103AE000E900DF708091EC00C82FC17080FDC0E854
:103AF0001092E9008091F000877F8093F000789425
:103B00000E9415101092E9008091F0008860809367
:103B1000F000CD2BCF70C093E900FF91EF91DF91C2
:103B2000CF91BF91AF919F918F917F916F915F9155
:103B30004F913F912F910F900FBE0F901F901895AE
:103B40001F920F920FB60F9211242F933F934F9312
:103B50005F936F937F938F939F93AF93BF93EF93F5
:103B6000FF938091E10082FF09C08091E20082FF13
:103B700005C08091E1008B7F8093E1008091E1009E
:103B800080FF17C08091E20080FF13C08091E200A7
:103B90008E7F8093E2008091E20080618093E2005A
:103BA0008091D80080628093D80019BC85E0809312
:103BB0004E038091E10084FF2BC08091E20084FFDE
:103BC00027C084E089BD86E089BD89B5982F9170B2
:103BD00080FFFBCF8091D8008F7D8093D8008091AB
:103BE000E1008F7E8093E1008091E2008F7E8093E0
:103BF000E2008091E20081608093E20080914F03B7
:103C0000882309F441C084E080934E0380914E03E1
:103C10008091E10083FF27C08091E20083FF23C0F1
:103C20008091E100877F8093E10082E080934E03E2
:103C300010924F038091E1008E7F8093E10080918C
:103C4000E2008E7F8093E2008091E20080618093A9
:103C5000E20042E060E080E00E9443048091F000D6
:103C600088608093F000FF91EF91BF91AF919F9199
:103C70008F917F916F915F914F913F912F910F9015
:103C80000FBE0F901F9018958091E30087FD93E081
:103C900090934E03BBCF78941F921FB61F921124AE
:103CA0008F939F93AF93BF93809158039091590343
:103CB000A0915A03B0915B030196A11DB11D8093A1
:103CC000580390935903A0935A03B0935B03BF9199
:103CD000AF919F918F911F901FBE1F9018951F92BB
:103CE0001FB61F9211248F939F93AF93BF93809120
:103CF0003E03811113C08091580390915903A09104
:103D00005A03B0915B034196A11DB11D80935803E6
:103D100090935903A0935A03B0935B03BF91AF9163
:103D20009F918F911F901FBE1F901895CDB7DEB742
:103D3000AA970FB6F894DEBF0FBECDBF84B7877FBA
:103D400084BF0FB6F894A895809160008861809335
:103D50006000109260000FBE80E890E00FB6F8940B
:103D600080936100909361000FBE86ED95E0909383
:103D70009501809394011092E2001092E1008091ED
:103D8000E00081608093E0008091D8008F7780937D
:103D9000D80019BC80916300816080936300109209
:103DA0000202809163008E7F8093630081E08093A4
:103DB00002021092E2001092E1008091D8008F7709
:103DC0008093D8008091D80080688093D80080913B
:103DD000D8008F7D8093D80084E089BD86E089BDBE
:103DE00009B400FEFDCF10924E0310924F031092C3
:103DF0004D0310924C0342E060E080E00E944304D7
:103E00008091E1008E7F8093E1008091E2008160EB
:103E10008093E2008091E20088608093E2008091CC
:103E2000E0008E7F8093E0008091E20084608093C8
:103E3000E200789480914E038823A1F01091E9006C
:103E40001F709091EC00892F817090FD80E8182BF5
:103E50001092E9008091E80083FD0E9415101F7008
:103E60001093E90082E084BD93E095BD9AEF97BD81
:103E700080936E000E94510C811102C00E94AD0B14
:103E80000CE411E0D8018D918D018F3F11F00E945B
:103E9000D805B1E001351B07A9F701E511E05FE5A1
:103EA000E52E51E0F52EF80181918F018F3F11F041
:103EB0000E94D805E016F106B1F78AE0ECE1F2E0E5
:103EC000DF01282F1D922A95E9F7E3E0F2E0DF01F8
:103ED0001D928A95E9F70E94511D811102C00E942E
:103EE000F50D82E090E00E94D023809310020E94A2
:103EF0006A0C90930E0280930D020E945F0EEFE316
:103F0000FCE93197F1F700C000000E945F0E80913C
:103F10001C0280FF08C06FEF7FEF90E080E00E94FE
:103F200002240E94900883E090E00E94D0230E9427
:103F3000061080910F02811133C00E94511D811122
:103F400004C00E94F50D0E94E60D88E090E00E94FA
:103F5000D823609333037093340380933503909395
:103F600036036E7F71F40E94E60D88E090E00E94B7
:103F7000D823609333037093340380933503909375
:103F800036030E943A0510922D028091330380FF80
:103F900004C060E086950E94830D81E080930F024B
:103FA00080E091E090933B0380933A0330E4232E2A
:103FB00046E2642E42E0742E80914E0304E016E047
:103FC000853009F411C10E945F0E882359F08FB724
:103FD000F894409158035091590360915A0370919D
:103FE0005B038FBF2CE1822E22E0922E01E112E0D2
:103FF000512C412CD401AD90BD904D01F801C080F1
:10400000D180CA14DB0499F1CA24DB24312CEE24BC
:10401000E394F12CC6018E219F21892B11F139A245
:104020004AA221E0C5018E219F21892B09F420E0BD
:104030002BA30E94D7048160782F9DA38CA349A154
:104040005AA16BA18DA10E94C21CD8018D919C9197
:1040500011978E259F258D939C935394BBE0B515A6
:10406000F0F03394EE0CFF1CEEE03E12D3CF4394FD
:104070000E5F1F4FF5E04F12BDCF511010C08FEFF4
:104080008EA38FA318A60E94D7048160782F9AA7C9
:1040900089A74EA15FA168A58AA50E94C21C809134
:1040A0002D028823D1F180912C02E0913303E69513
:1040B000E81BE0932802823009F0A0C0F0E0EA5348
:1040C000FE4FE4910E2F10E0BBE1EB2EBBE0FB2E88
:1040D00080912902882361F0109229020E94D7045E
:1040E000909327028093260210922B0210922A02AC
:1040F0000E94D704E0912602F09127028E1B9F0BAD
:104100008F3F9F4750F4E00FF11FF0932702E09399
:10411000260286E292E0F70109950E942905909116
:104120001B02891380931B0280914E03843009F097
:1041300043CF83E08093E9008091E80082FF3CCF89
:104140008091E80090E085FF06C00E94C9038823A3
:1041500009F4AEC091E08091E8008B778093E8008D
:10416000992309F429CFE981E150E33108F03DC1F9
:10417000F0E0E559FB4D0C949D2380914E03843073
:1041800019F110923E0388E190E00FB6F894A895DB
:10419000809360000FBE2092600083B7817F8460AF
:1041A00083BF83B7816083BF7894889583B78E7F00
:1041B00083BF0FB6F894A8958091600088618093C2
:1041C0006000109260000FBE80914D03882361F063
:1041D0000E945F0EECE1F2E081919191892B09F050
:1041E0003DC26E167F06C1F780914E03853009F4FB
:1041F000C4CF0E940A100E942905E5CE863059F4EA
:10420000F0E0ED53FE4FE4910E2F10E0ABE0EA2E0C
:10421000ABE0FA2E5DCF893061F4E695F0E0E05432
:10422000FE4FE4910E2F10E0F7E7EF2EFAE0FF2E9D
:104230004FCF8F3061F4E695F0E0E354FE4FE49108
:104240000E2F10E0E9E0EE2EEAE0FE2E41CF8531A0
:1042500059F4F0E0E654FE4FE4910E2F10E07BEBB2
:10426000E72E79E0F72E34CF08E210E042E2E42EA8
:1042700049E0F42E883109F42BCF833249F4E8EB7E
:10428000F1E00591149162EBE62E6AE0F62E20CF64
:1042900004EF11E059EEE52E58E0F52E843209F4D2
:1042A00017CF00ED17E032EDE32E34E0F32E10CF00
:1042B00000E210E0CE0101967C018091E80085FDCE
:1042C0000AC08091E8008B778093E8000E94C903C0
:1042D000882399F33FCF8091F100D7018D937D0121
:1042E0000150110951F736CF1A8289E08B831AC029
:1042F0008A81823009F4C8C18330D9F1813009F054
:1043000074C02FB7F894609158037091590380914D
:104310005A0390915B032FBF0E94A3236B837C837E
:104320008D839E8380914E03843009F045CE109199
:10433000E9001F709091EC00892F817090FD80E85A
:10434000182B82E08093E9008091E80080FF0DC087
:1043500050E040E060E270E0CE0101960E94FA0376
:104360008091E8008E778093E8001F701093E90039
:1043700023CE80911C0290911D02982789279827AF
:104380009C838B8380911E0290911F02982789271E
:1043900098279E838D8380912002909121029827F7
:1043A0008927982798878F838091220290912302F2
:1043B0009827892798279A87898780912402909146
:1043C00025029827892798279C878B87ABCF8A81DE
:1043D000823059F46B817C818D819E810E94A32360
:1043E00086E290E00E94E4239DCF8FEF89839ACFED
:1043F0004C816B818A810E94BC0B98278927982762
:104400009E838D838FCFED80FE80FE24EF24FE24DB
:104410008A8190E06CE870E00E9456238C018B81C9
:1044200090E06CE170E00E945623080F191F8C8108
:1044300090E0880F991F080F191F6F2DC8018796EC
:104440000E94E4236E2DC8018896CCCF0E943F0BBA
:1044500069CF8A818138C1F060F4803809F062CF79
:1044600020E04B8160913503809134030E948A0CD7
:1044700059CF823859F1833809F054CF20E0409168
:1044800036036C818B81F2CF60E08B810E94830DBB
:104490009B8180913303911111C08E7F80933303F0
:1044A00010922D02BFEFE0E7F2E0B150E040F040A3
:1044B000E1F700C000000E94B40834CF816080930F
:1044C000330360E086950E94830D2CCF8B8180930F
:1044D000370328CF8A81813899F030F4803809F089
:1044E00021CF8091360302CF823891F0833809F0D2
:1044F00019CF809134038B83809135038C8312CF45
:104500008091330380FF02C08695F0CE80E0EECE2E
:1045100080913703EBCE6091330370913403809127
:104520003503909136030E94780CFCCE80E18A839B
:10453000F9CE81E08A8389EAD9CECA80DB80DC2487
:10454000CD24DC248E010F5F1F4FEC80E00EF12E96
:10455000F11CC601895A9D4FE016F10609F4E2CE1E
:1045600029EAC21621E0D20658F40E94D023D801CD
:1045700014968C93FFEFCF1ADF0A0F5F1F4FE9CF1E
:10458000F8011482F7CF0A811B8110270127102719
:10459000CE0101966C01EC80E00EF12EF11CC801F9
:1045A000895A9D4F0E151F0509F4BCCE093AA1E0AA
:1045B0001A0720F4F60164810E94E423FFEFCF1A6A
:1045C000DF0A0F5F1F4FEBCF0E942F0BABCE84E0B3
:1045D000AECFCA80DB80DC24CD24DC248E010F5FCB
:1045E0001F4FEC80E00EF12EF11CC60187960E15D0
:1045F0001F0509F497CE20E3C21622E0D20658F434
:104600000E94D023D80114968C93FFEFCF1ADF0AB3
:104610000F5F1F4FEACFF8011482F7CF0A811B8189
:10462000102701271027CE0101966C01EC80E00EC7
:10463000F12EF11CC80187960E151F0509F472CEE4
:104640000033A2E01A0720F4F60164810E94E423FB
:10465000FFEFCF1ADF0A0F5F1F4FECCF09BD19BD67
:1046600009B400FEFDCF8091D8008F7D8093D800E3
:104670008091E00082608093E0008091E00081FD05
:10468000FCCF0E940A10B0CD86E290E00E94D023B9
:104690001B821C821D828E8345CE002480FD060E67
:1046A000660F11F08695D1F7802D089500245527C7
:1046B00004C0080E591F880F991F009729F076959E
:1046C0006795B8F37105B9F7802D952F089587FB8D
:1046D000082E062687FD819567FD61950E94AA2315
:1046E0000EF4919507FC81950895AA1BBB1B51E11F
:1046F00007C0AA1FBB1FA617B70710F0A61BB70B52
:10470000881F991F5A95A9F780959095BC01CD01F6
:10471000089597FB072E16F4009407D077FD09D073
:104720000E94752307FC05D03EF4909581959F4F1C
:104730000895709561957F4F0895EE0FFF1F0590C6
:10474000F491E02D09946927962769277827872710
:1047500078270895991B79E004C0991F961708F0EF
:10476000961B881F7A95C9F780950895FC014150E2
:10477000504030F001900616D1F73197CF010895DF
:10478000882799270895FB01DC0104C08D910190D1
:10479000801921F441505040C8F7881B990B0895A7
:1047A000F999FECF92BD81BDF89A992780B50895F9
:1047B000A6E1B0E044E050E00C940A24A8E1B0E0A7
:1047C00042E050E00C940A24262FF999FECF92BDC6
:1047D00081BDF89A019700B4021639F01FBA20BDC6
:1047E0000FB6F894FA9AF99A0FBE08950396272FF8
:1047F0000E94E5230E94E423252F0E94E523242F15
:104800000C94E5230196272F0E94E5230C94E423C2
:10481000DC01CB01FC01F999FECF06C0F2BDE1BD80
:10482000F89A319600B40D9241505040B8F708956F
:10483000EE27FF27AA27BB2708C0A20FB31FE41F3C
:10484000F51F220F331F441F551F969587957795A7
:10485000679598F37040A9F7009799F7BD01CF01CC
:104860000895A1E21A2EAA1BBB1BFD010DC0AA1FB1
:10487000BB1FEE1FFF1FA217B307E407F50720F0C9
:10488000A21BB30BE40BF50B661F771F881F991F44
:104890001A9469F760957095809590959B01AC018D
:1048A000BD01CF010895F894FFCFF9102111C31273
:1048B0002111C31254117511C31272127F125E17A7
:1048C0005E17991799174618C917C917C91760189D
:1048D000CD18DE18DE1874217821E721F821032293
:1048E000262229226A228B22F521F521962299225D
:0C48F0009D22C322E422E722E9220E23CD
:1048FC00D4046308D3045F085B08D10401191A1BA4
:10490C001C1D1E1F20212201020101818283E20055
:10491C00E900EA00B500B600B700CD008301CC0079
:10492C008A0192019401210223022402250226020B
:10493C0027022A02B300B4006F00700062909192BB
:10494C00939495963031323334353637676665003B
:10495C0001020202020606060909090909090F0FDC
:10496C000F0F0F0F151515181919191919191919E0
:10497C0019192324402232C800A60074009D06B6E3
:04498C0006D6060045
:00000001FF
