:100000000C9435030C947C030C947C030C947C03BB
:100010000C947C030C947C030C947C030C947C0364
:100020000C947C030C947C030C9446280C940228BA
:100030000C9443290C947C030C947C030C947C0357
:100040000C947C030C947C030C947C030C947C0334
:100050000C947C030C941F290C947C030C947C035B
:100060000C947C030C947C030C947C030C947C0314
:100070000C947C030C947C030C947C030C947C0304
:100080000C947C030C947C030C947C030C947C03F4
:100090000C947C030C947C030C947C030C947C03E4
:1000A0000C947C030C947C030C947C0305010902E2
:1000B000A10185020901A1000509190129081500FE
:1000C0002501950875018102050109300931158165
:1000D000257F95027508810609381581257F9501D0
:1000E00075088106050C0A38021581257F95017572
:1000F000088106C0C005010980A101850319012AF4
:10010000B700150126B700950175108100C0050CD8
:100110000901A101850419012AA002150126A002E6
:10012000950175108100C005010906A1018506052C
:100130000719E029E71500250195087501810205D9
:1001400007190029EF1500250195F07501810205B9
:10015000081901290595057501910295017503910D
:1001600001C00660FF0961A1010962150026FF00B8
:100170009520750881020963150026FF00952075FA
:10018000089102C005010906A101050719E029E748
:1001900015002501950875018102950175088101F9
:1001A0000507190029FF150026FF0095067508812F
:1001B000000508190129059505750191029501753C
:1001C000039101C0000000000000000000000000DA
:1001D000000000000000000000000000000000001F
:1001E00000000000000000007E0F00D4FFFFFFC7EA
:1001F0000000007800000000000000002A2B28000A
:1002000000000000000000000000000000000029C5
:10021000000000002C1E3420212224342627252E05
:10022000362D3738271E1F2021222324252633333D
:10023000362E37381F0405060708090A0B0C0D0E69
:100240000F101112131415161718191A1B1C1D2F35
:100250003130232D350405060708090A0B0C0D0E55
:100260000F101112131415161718191A1B1C1D2F15
:100270003130354C0001010101010101010102028F
:100280000202020202020203030303030303030444
:10029000040404040404050505050506060606060F
:1002A000070707070708080808090909090A0A0AC9
:1002B0000B0B0B0C0C0C0D0D0D0E0E0E0F0F0F106B
:1002C00010111111121213131414151516161717F5
:1002D000181819191A1A1B1B1C1D1D1E1E1F202061
:1002E000212222232424252626272829292A2B2CAB
:1002F0002D2D2E2F30313232333435363738393ACE
:100300003B3C3D3E3F404142434445464748494AC5
:100310004C4D4E4F50515354555658595A5B5D5E93
:100320005F616264656668696B6C6D6F707273752E
:1003300077787A7B7D7E8082838587888A8C8E8F92
:1003400091939596989A9C9EA0A2A3A5A7A9ABADC0
:10035000AFB1B3B5B7BABCBEC0C2C4C6C9CBCDCFAE
:10036000D1D4D6D8DBDDDFE2E4E7E9EBEEF0F3F55C
:10037000F8FAFDFF29001E001F00200021002200C6
:10038000230024002500260027002D002E002A002F
:1003900035002B0014001A000800150017001C007F
:1003A00018000C00120013002F00300031004C0028
:1003B000390004001600070009000A000B000D00B8
:1003C0000E000F0033003400000028004B00E10055
:1003D0001D001B000600190005001100100036006A
:1003E000370038000000E50052004E00E000E30056
:1003F000E200000000002C00000000000000E60009
:100400000151E400500051004F00C25C3A003B0033
:100410003C003D003E003F004000410042004300E0
:10042000440045000100C35C01000100010001001F
:1004300001000100010001000100010001000100B4
:1004400001000100010001000100010001000100A4
:100450000100010001000100010001000100000095
:100460007200010001000100010001000100010013
:100470000100010001000100010000007300C95CDF
:100480000100025101000100000000000100000015
:1004900000000000010001000100C55CCA5CC65CF0
:1004A0000100010001000100010001000100010044
:1004B0000100010001000100010001000100010034
:1004C0000100010001000100010001000100010024
:1004D0000100010001000100010001000100010014
:1004E0000100010001000100010001000100010004
:1004F00001000100000001000100010001000100F5
:1005000001000100010001000100010001000100E3
:1005100000000100010001000100010001000000D5
:1005200000000100000000000000010001000100C7
:1005300001000100005C0100010001000100010058
:1005400001000100010001000100010001000100A3
:100550000100010001000100010001000100010093
:100560000100010001000100010001000100010083
:100570000100010001000100010001000100010073
:100580000100010001000100010000000100010064
:100590000100010001000100010001000100010053
:1005A0000100010001000000010001000100010044
:1005B0000100010000000000010000000000000038
:1005C00001000100010001000100010009025B00BF
:1005D000030100A0FA090400000103010100092140
:1005E00011010001224000070581030800020904EF
:1005F0000100020300000009211101000122220074
:1006000007058203200001070503032000010904F8
:100610000200010300000009211101000122B600BF
:10062000070584032000021201000200000008ED0B
:10063000FE606001000102000112036B0065007999
:100640000062006F00610072006400000016037118
:10065000006D006B006200750069006C006400654D
:100660000072000000040309040011241FBECFEF34
:10067000DAE0DEBFCDBF04B603FE27C080910206DC
:1006800090910306A0910406B09105068730904B27
:10069000A740B04BD1F410920206109203061092BC
:1006A00004061092050614BE84B7877F84BF0FB678
:1006B000F894A89580916000886180936000109202
:1006C00060000FBEE0E0F8E3099526E0AEE0B3E09D
:1006D00001C01D92A230B207E1F713E0A0E0B1E043
:1006E000EEE7F0E602C005900D92AE30B107D9F703
:1006F0000E946A290C94DC2F0C9400009091FB0559
:10070000937061F081110BC094609093FB0510927F
:1007100018018091FA0581608093FA0508958A3264
:1007200010F0946AF2CF880F880F982BEECF90913B
:10073000FB05937059F08093FC056093FD05409391
:10074000FE058091FA0581608093FA050895E8ED31
:10075000F0E080818E7F80831092E2001092DA00B8
:100760001092E100A0EEB0E08C9181608C938081CA
:100770008F77808319BCA7EDB0E08C918E7F8C932E
:1007800080818F7E808310929B0508952091E400E4
:100790003091E50095E6A9012091EC00822F81704F
:1007A00020FF06C08091E80080FF06C080E0089529
:1007B0002091E80022FD1AC08091C005882389F0AD
:1007C000853089F08091EB0085FD0FC02091E40019
:1007D0003091E50042175307F9F29150E1F684E0B9
:1007E000089582E0089583E0089581E00895EF92EE
:1007F000FF920F931F93CF937C018B010E94C6033E
:10080000C82F811117C08091E80085FD0BC0809131
:10081000E8008E778093E8000E94C603882399F34E
:10082000C82F08C0F70181917F018093F10001502A
:10083000110949F78C2FCF911F910F91FF90EF90E5
:1008400008958091C20587FF13C08091E80082FF60
:1008500006C08091E8008B778093E80004C0809107
:10086000C0058111F2CF08958091C0058823D9F386
:100870008091E80080FFF8CF8091E8008E77ECCF80
:10088000982F9093E900242F762F50E0891731F0AC
:100890007091EC002091ED005091F00021FD07C017
:1008A0009F5F973071F78093E90081E00895309160
:1008B000EB003E7F3093EB003091ED003D7F3093B5
:1008C000ED003091EB0031603093EB007093EC0061
:1008D0002093ED005093F0002091EE0027FDE0CF33
:1008E00080E00895CF92DF92EF92FF920F931F93D3
:1008F000CF93DF93C8EDD0E088818F7E8883E7EDCA
:10090000F0E080818160808384E082BF81E0809319
:100910009B0588818E7F888302EE10E0F8011082AB
:100920001092DA0081EEC82ED12CF6011082888157
:100930008F77888388818068888388818F7D88838A
:1009400019BC1092C0051092C1051092BF051092FB
:10095000BE0590EEE92EF12CF70180818B7F80831C
:1009600088818160888342E060E080E00E944004EA
:10097000F60180818E7F8083F80180818160808391
:10098000808188608083F70180818E7F8083888169
:1009900080618883DF91CF911F910F91FF90EF903D
:1009A000DF90CF900895FC018091C8059091C90512
:1009B00086179707A0F06115710529F49091E8005A
:1009C0009E779093E80090E06115710551F49111C4
:1009D00008C08091E80082FF34C080E00895BC0127
:1009E000F2CF8091C0058823C1F18530C1F180919B
:1009F000E80083FD30C08091E80082FDEACF80915D
:100A0000E80080FFE1CF8091F3002091F200382FC1
:100A10006115710519F02830310558F091E0283042
:100A2000310509F090E02091E8002E772093E8004E
:100A3000CBCF81918093F100615071092F5F3F4FBF
:100A4000E7CF8091C005882341F0853041F0809147
:100A5000E80083FFBECF81E0089582E0089583E03F
:100A60000895089580919D0508959C014FB7F894CD
:100A70008091920590919305A0919405B091950570
:100A80004FBF821B930B08952FB7F8948091920566
:100A900090919305A0919405B09195052FBF08956D
:100AA000209114012223C9F02091960527FF15C03B
:100AB000E62FE695E695E695EE31D8F4E80FF92FA6
:100AC000F11D677021E030E001C0220F6A95EAF75E
:100AD00020958281282322830895FC01329608966E
:100AE0002191621303C0DF0111971C92E817F907E7
:100AF000B9F70895209114012223C1F020919605A1
:100B000027FF14C0E62FE695E695E695EE31F8F45A
:100B1000E80FF92FF11D677021E030E001C0220FCE
:100B20006A95EAF78281822B82830895FC013296CE
:100B30002FEF30E04191641751F02F3F19F441112C
:100B400001C0232F3F5F3630A9F72F3F09F40895E6
:100B5000820F911D27FD9A95FC01628308952091D3
:100B60008F05309190052817390771F09093900503
:100B700080938F05E0918D05F0918E05309721F0DF
:100B80000084F185E02D0994089520918B05309122
:100B90008C052817390771F090938C0580938B058D
:100BA000E0918D05F0918E05309721F00680F78158
:100BB000E02D09940895E0918D05F0918E05309710
:100BC00021F00190F081E02D099480E00895FA0170
:100BD000811101C0FB010994E1E4F4E081836083A9
:100BE0004283339695E0EB38F907C1F70895FC018D
:100BF000EE0FFF1FE80FF91FEF5BFB4F6183408390
:100C000022830895EBEFF5E0248130E1231B08F403
:100C100020E024838091FA0581608093FA0508958D
:100C2000EBEFF5E0248130E1230F08F42FEF24836C
:100C30008091FA0581608093FA050895EBEFF5E065
:100C4000438120E1421B08F440E08181628190E011
:100C50000C949703EBEFF5E0438120E1420F08F499
:100C60004FEF8181628190E00C949703EBEFF5E008
:100C7000628120E1621B08F460E08181438190E0A1
:100C80000C949703EBEFF5E0628120E1620F08F42A
:100C90006FEF8181438190E00C949703EBEFF5E0D7
:100CA0008181438162818850990B0C949703EBEF0B
:100CB000F5E0818190E04381628108960C9497036E
:100CC0008091FB0586958695815009F489E20C9404
:100CD0007E038091FB05869586958F5F8A3208F0AA
:100CE00081E00C947E03EF92FF920F939701201BFB
:100CF00031092F3F310519F010F02FEF30E020952A
:100D0000382F320F08F43FEF832F0F91FF90EF90B1
:100D10000895EF92FF920F939701201B31092F3F07
:100D2000310519F010F02FEF30E0322F3095482FB9
:100D3000430F08F44FEF842F620F0F91FF90EF9055
:100D40000895EF92FF920F93972F093438F4B7016B
:100D5000601B71096F3F710519F010F06FEF70E0C3
:100D6000485F5F4F4131510540F0A901485F5F4F37
:100D70004131510510F06FEF70E06095482F460F3C
:100D800008F44FEF842F37FF02C02D5F3F4F35959A
:100D90002795359527956091FC05620F792F0F9166
:100DA000FF90EF900895EF92FF920F931F930E0D17
:100DB0001F2D111DF90137FF03C0F195E195F109D0
:100DC00024E0EE0FFF1F2A95E1F7EF3FF10519F040
:100DD00014F0EFEFF0E09A0157FF03C03195219531
:100DE000310994E0220F331F9A95E1F72E173F0740
:100DF0000CF4F901E00FF11FEF3FF10519F010F0CD
:100E0000EFEFF0E0E095282F3E2F230F08F42FEFAF
:100E1000822F1F910F91FF90EF900895EF92FF9214
:100E20000F93970195E0099F200D311D11242F3F4D
:100E3000310519F010F02FEF30E02095382F320FE8
:100E400008F43FEF832F0F91FF90EF90089522E871
:100E5000241B08F420E0620F08954095282F429F3C
:100E6000412D1124842F0895E42FF0E0EE0FFF1F91
:100E7000ED53FE4F9081921B97FD9195292F38E1FC
:100E8000239F212D1124620F08950F931F9310E0CB
:100E9000F801EE0FFF1FED53FE4F9081905797FD25
:100EA0009195000F111FF801EC53FE4F0081005285
:100EB000110B2003F001219FF00D112408E310E035
:100EC000091B110997FD139540039001419F300DB7
:100ED0001124E20FF31F9F01220F331F2E0F3F1F1C
:100EE00037FF02C021583F4F220F232F221F330B01
:100EF000620F1F910F9108950F931F93522F10E0CF
:100F0000F801EE0FFF1FEC53FE4FA081A052BB0B68
:100F10009D015203F001539FF00D1124000F111F8A
:100F2000D801AD53BE4F0C910057110B40039001F7
:100F3000419F300D11242E0F3F1F37FF02C0215C4F
:100F40003F4F96E0359527959A95E1F7620F1F91EF
:100F50000F9108950F931F93522F10E0F801EE0F99
:100F6000FF1FEC53FE4FA081A052BB0B9D0152030B
:100F7000F001539FF00D1124000F111FD801AD5344
:100F8000BE4F0C910057110B40039001419F300D53
:100F900011242E0F3F1F37FF02C021583F4F220F51
:100FA000232F221F330B620F1F910F910895EF9291
:100FB0000F93972F23E0029FB00111247595679539
:100FC0006E0D792F0F91EF900895322F50E0FA01B6
:100FD000EE0FFF1FEC53FE4F9081905297FD9195BD
:100FE000440F551FFA01ED53FE4F2081231B330B95
:100FF000290F311D97FD3A95620F0895E42FF0E017
:10100000EE0FFF1FEC53FE4F6081621B0895E42F2B
:10101000F0E0EE0FFF1FED53FE4F6081621B08955D
:10102000622F0895E42FF0E0EE0FFF1FED53FE4F07
:10103000408134EE439F412D1124E82FF0E050E031
:10104000445E5F4FDA01A21BB1099D01B7FF03C0E7
:1010500031952195310993E0220F331F9A95E1F7DD
:10106000AF01421B530B9A0157FD20E0582F259FDB
:10107000212D1124822F0895E42FF0E0EE0FFF1FA1
:10108000ED53FE4F408134EE439F412D1124E72F55
:10109000F0E050E0445E5F4FDA01A21BB1099D0110
:1010A000B7FF03C031952195310993E0220F331F1B
:1010B0009A95E1F7AF01421B530B9A0157FD20E0CF
:1010C000279F212D1124722F08950C94EC050C9468
:1010D000F705FC019B01009729F480E077FF2BC006
:1010E00080E80895AC0197FF04C044275527481BAA
:1010F000590BB901640F751F37FD10C0241B350B48
:10110000C901A5E0880F991FAA95E1F70E948E2ECC
:1011100080E2861BF7FF0FC081950895CB0165E043
:10112000880F991F6A95E1F7BA01621B730B0E9441
:101130008E2E80E6EECF0895EF920F93CF93DF933C
:10114000D72FC82FC9010E19BA010E946908602F54
:10115000681B7D2F8C2FDF91CF910F91EF90089519
:101160000F93CF93DF93D72FC82FC901BA010E94E5
:101170006908682F600F7D2F8C2FDF91CF910F9121
:101180000895EF920F931F93CF93DF93D62FC72F1E
:10119000182FC9010E19010FBA010E946908081B16
:1011A000202F219F212D1124822F6D2F7C2FDF9145
:1011B000CF911F910F91EF900895EF920F931F938E
:1011C000CF93DF93D62F172FC82FC9010E19070F02
:1011D000BA010E946908702F781B719F712D11242C
:1011E0006D2F8C2FDF91CF911F910F91EF9008956C
:1011F0000F931F93CF93DF93D62FC72F182FC901BB
:10120000212F201B022FBA010E946908982F990FE5
:10121000990F891B800F282F219F212D1124822FA8
:101220006D2F7C2FDF91CF911F910F9108950F9318
:101230001F93CF93DF93D62F172FC82FC901272FC6
:10124000201B022FBA010E946908982F990F990F4D
:10125000782F791B700F719F712D11246D2F8C2F9A
:10126000DF91CF911F910F910895E82F86FDE095B2
:101270002E2F2F7086FD2F5FE695E695E695E6709A
:10128000F0E0EF59FE4F9181929F902D212D112476
:1012900092959F702295207F922B2081920F87FD3F
:1012A000919580E8890F08950F931F93CF93DF9353
:1012B0008B01D82FC42F822F0E943509EC2FF0E02C
:1012C000EE0FFF1FED53FE4F90819058890F87FD61
:1012D0008195880F682F2CE0629F612D1124600F8B
:1012E000712F8D2FDF91CF911F910F910895409114
:1012F00010015091110125E038E0429FC001439F49
:10130000900D529F900D1124875E994C909311017E
:1013100080931001890F0895AC018230910508F483
:1013200008959FEF413E8EE1580740F49A0195E001
:10133000369527959A95E1F798E0920F61E0E62FB0
:10134000E90FFF27FF1F9F0135952795822F229FC9
:10135000F001239FF00DF00D11244E175F0738F4B4
:101360009FEF920F961758F78FEF860F08952F3F34
:10137000E9F361E0620FF6CF0F93CF93DF93D72F9E
:10138000C82F47FD419588E390E0841B910947FDF4
:101390009395889FB001899F700D700D1124229F35
:1013A000C001239F900D900D1124860F971F0E945E
:1013B0008C09982F990F890F682F600F7D2F8C2F24
:1013C000DF91CF910F91089530E020E0869F212D8D
:1013D000969F200D311D1124C9010895AF92BF922F
:1013E000CF92DF92FF920F931F93CF93DF93362F0D
:1013F000472FE82FF0E0EC58FD4F71110FC0E4913A
:101400008E2F2E2F6E2F722FDF91CF911F910F9164
:10141000FF90DF90CF90BF90AF900895C72FD0E09E
:101420002491F22E022F10E056E0659FC001112496
:10143000EFEFF0E0BF010E947A2E832F90E0880F3B
:10144000991F35E5369FD001379FB00D11248A1BB7
:101450009B0B982F990F980F6F01CC1ADD0AC09E35
:10146000D001C19EB00DD09EB00D11248B2F499F8D
:10147000A0011124452F55276F01C41AD50AC09E1B
:10148000A001C19E500DD09E500D11245F01A91ADC
:10149000B108AC9E6001AD9ED00CBC9ED00C112456
:1014A000CD2CDD24EC19FD09E09FE001E19FD00D7A
:1014B000F09FD00D1124ED2F62307105A1F050F492
:1014C0006115710509F49ECF6130710581F0EB2F34
:1014D000852F98CF6430710569F080F06630710512
:1014E00009F490CFF4CFE22F2B2F8D2F8BCFE22F4B
:1014F000252F88CFEB2F822F2D2F84CF2B2F8F2DB1
:10150000E52F80CF2F923F925F926F927F928F92C2
:101510009F92AF92BF92CF92DF92EF92FF920F9382
:101520001F93CF93DF93CDB7DEB72A970FB6F8940A
:10153000DEBF0FBECDBF8B837E836D8320911501EF
:1015400086E1289F802D11248F838A5E89838A8378
:101550008F3610F03EE63A838091CE058C83FF8172
:10156000EF2FF0E0FA87E987CF01880F991F9C01E0
:101570002D533E4F69013B81832F90E0FC01319652
:10158000F887EF838A8199859817E8F081E0E981EF
:10159000EE3608F080E02A960FB6F894DEBF0FBE54
:1015A000CDBFDF91CF911F910F91FF90EF90DF9012
:1015B000CF90BF90AF909F908F907F906F905F90F3
:1015C0003F902F900895E985FA85E156FD4F80817F
:1015D000909116018923F1F02090FC053090FD05D3
:1015E0002F81388522533A4F39015B8010E0FC810E
:1015F0005F16D0F02091FE05129F112D1124B1012C
:10160000812F0E94EE09462F282F672F89859A8502
:101610000E94670829853A852F5F3F4F3A872987BF
:1016200032E0C30ED11CAECFF30181913F01F60130
:10163000A080A81ABB088180F3018781881A9908C5
:10164000AA9C9001AB9C300D300D1124889CC001E8
:10165000899C900D900D1124820F931F0E948C097C
:10166000082F6091FF0521E0620F08F46FEFF3018E
:10167000EE0FFF1FEE5CF540858996890E94E40914
:101680007C019401A501B101812FED81FE810995B5
:101690001B015394182FABCFCF92DF92EF92FF92A2
:1016A0000F931F93CF93DF938C01C091150186E1B7
:1016B000C89FC02D112426E1D22EDC0ECD2C2EE6A3
:1016C0002D1510F49EE6C92E2091FF0531E0230F61
:1016D00008F42FEF30E050E040E06FEF7FEF80E064
:1016E00090E00E94792F7901D0E02C2FCC1570F07A
:1016F00081E0FDE6FD1508F480E0DF91CF911F91B8
:101700000F91FF90EF90DF90CF900895FE01E1568A
:10171000FD4F808190911601892311F14091CE05F2
:101720004150042E000C550B47FF1CC0C7016091AF
:10173000FF0521E0620F08F46FEF0E94E409AC019D
:101740006091FC057091FD058091FE05F8010995F9
:101750000E94EE09462F282F672FCE010E946708AE
:101760002196C3CFFA01E253FA4F818982130AC04E
:10177000FA01EE0FFF1FE253FA4F818D928D8E1505
:101780009F05A8F241505109CFCFDF92EF92FF920F
:101790000F931F93CF93DF937C01C091150186E1D6
:1017A000C89FC02D112416E11C0F012F1F3608F011
:1017B0000EE66091FF056695669521E0620F08F4DC
:1017C0006FEF8091CA059091CB050E94E409D82E55
:1017D000D0E0C01760F081E01E3608F080E0DF91B5
:1017E000CF911F910F91FF90EF90DF900895FE0130
:1017F000E156FD4F808190911601892391F060910F
:10180000FC057091FD058091FE052D2D4C2FF701F3
:1018100009950E94EE09462F282F672FCE010E94BE
:1018200067082196D6CF9F92AF92BF92CF92DF9258
:10183000EF92FF920F931F93CF93DF936C01C091B0
:10184000150186E1C89FC02D112416E11C0FB12E91
:101850001F3610F03EE6B32E6091FF056695669543
:101860008091CA059091CB050E94E409F82E80E48E
:101870008F0D0E94350990E8A92EA80E8F2D0E9489
:10188000350920E8922E980ED0E0CB1580F081E04B
:101890001E3608F080E0DF91CF911F910F91FF90ED
:1018A000EF90DF90CF90BF90AF909F900895FE0192
:1018B000E156FD4F8081909116018923A1F060913E
:1018C000FC057091FD058091FE05EF2C0C2F292D54
:1018D0004A2DF60109950E94EE09462F282F672F01
:1018E000CE010E9467082196D0CF7F928F929F925F
:1018F000AF92BF92CF92DF92EF92FF920F931F931E
:10190000CF93DF935C01C091150186E1C89FC02D84
:10191000112416E11C0FF12E1F3610F03EE6F32EB7
:101920006091FF0566958091CA059091CB050E9454
:10193000E409782ED0E0CF1590F081E01E3608F053
:1019400080E0DF91CF911F910F91FF90EF90DF909A
:10195000CF90BF90AF909F908F907F900895FE01A1
:10196000E156FD4F8081909116018923C9F1CE0186
:10197000880F991F88589E4FFC01E55BFF4F20811F
:10198000422F4057550B6A01845B9F4FFC018081B9
:10199000282F2052330B4901449F9001459F300D61
:1019A000300D1124889CC001899C900D900D11244C
:1019B000820F931F0E948C09082F6091FC05709183
:1019C000FD058091FE05E72C9401A601F50109951E
:1019D0000E94EE09462F282F672FCE010E9467082C
:1019E0002196A9CFCF92DF92EF92FF920F931F9390
:1019F000CF93DF937C01C091150186E1C89FC02D74
:101A0000112416E11C0FD12E1F3610F03EE6D32E06
:101A10006091FF0566958091CA059091CB050E9463
:101A2000E409C82ED0E0CD1568F081E01E3608F03C
:101A300080E0DF91CF911F910F91FF90EF90DF90A9
:101A4000CF900895FE01E156FD4F808190911601DF
:101A5000892311F1CE01880F991F88589E4FFC01F0
:101A6000E45BFF4F20812052330B855B9F4FFC01CD
:101A700040814057550B6091FC057091FD058091A8
:101A8000FE050C2DF70109950E94EE09462F282F1F
:101A9000672FCE010E9467082196C5CF0E9444059A
:101AA0009C019091B9038091BA03982B21F0309357
:101AB000B6032093B5039091BB038091BC03982B90
:101AC00021F03093B4032093B303E0918D05F0919E
:101AD0008E05309749F082E08093B7030480F5814A
:101AE000E02D87EB93E0099408954091B903803F7E
:101AF00059F48091BA0387FF0DC01092BA034111C7
:101B00000BC01092B10308C0813F81F48091BA03E9
:101B100018169CF3442381F08091BB039091BC0381
:101B2000892B09F05AC01092B0030895823F49F4FE
:101B300047FFF0CF1092B9038091BA038111ECCF27
:101B4000E0CF833F19F41416ACF3E4CF9091BB03BC
:101B5000893F29F41916F4F61092BB03DBCF8A3FB4
:101B600019F497FFD7CFF8CF9091BC038B3F29F49E
:101B700097FFD0CF1092BC03CDCF8C3F19F419162C
:101B8000CCF3C8CF9CE0980F953090F4845F990B0C
:101B900021E030E0B90102C0660F771F8A95E2F7B5
:101BA000CB0180959091B80389238093B803B2CF7D
:101BB0008D3F31F48091B2038E7F8093B203AACF20
:101BC0008E3F21F48091B2038D7FF7CF8F3F09F0D4
:101BD000A1CF8091B2038B7FF0CF08958091B203A3
:101BE00080FD16C081FD16C082FD16C08091B00335
:101BF0008823A1F0883280F428E0829FC00111245C
:101C000068E270E00E948E2E862F672B39F00895CF
:101C100082E0089584E0089588E0089581E00895C1
:101C20008091B20380FD14C081FD14C082FD16C0F6
:101C30008091B103882381F0843180F422E3829F74
:101C4000C001112464E170E00E948E2E862F089559
:101C50008CE0089589E1089585E0089582E3089570
:101C6000803F31F40E94100E81958093BA0308954D
:101C7000813F19F40E94100EF8CF823F31F40E9488
:101C8000100E81958093B9030895833F19F40E9443
:101C9000100EF8CF893F29F40E94EE0D8093BB030C
:101CA00008958A3F21F40E94EE0D8195F7CF8B3F76
:101CB00031F40E94EE0D81958093BC0308958C3F12
:101CC00019F40E94EE0DF8CF9CE0980F953070F457
:101CD000845F990B21E030E001C0220F8A95EAF77A
:101CE0008091B803822B8093B80308958D3F31F41F
:101CF0008091B20381608093B20308958E3F21F4F6
:101D00008091B2038260F7CF8F3FB9F78091B20321
:101D10008460F1CF80E00895F894E82FE295EF70A9
:101D2000F0E031A1282F2F7081E090E001C0880FF2
:101D30002A95EAF7982F9095932391A392A1892B46
:101D400082A3789408959091960592FF06C0282F5B
:101D500028712830F9F4877F846093FF06C0282F0C
:101D600028712831F1F4877E84612091970520FF46
:101D700006C0382F38713830D9F4877F816021FF51
:101D800006C0282F28712831D1F4877E816194FD07
:101D9000877E0895282F24712430F9F68B7F886080
:101DA000DCCF282F2471243101F78B7E8861DDCFB1
:101DB000382F3171313019F78E7F8860E0CF282FAE
:101DC0002171213121F78E7E8861E1CFCF93DF939E
:101DD000EC0182389105A9F1D8F58133910509F418
:101DE00096C048F58932910509F48AC08A9709F4AA
:101DF00095C0C11521E5D20708F0BCC0C11530E57A
:101E0000D30708F014C1C83ED10508F09CC0C03EFD
:101E1000D10560F5C83AD10508F087C0C53AD105AB
:101E200008F0FDC0C130D10509F12097F9F0C430A8
:101E3000D105E0F440C08533910509F45AC0C99733
:101E4000C1F680919605837089F0C0EED0E00EC097
:101E5000833E910599F170F4803E910501F1823E37
:101E6000910539F68091960582FD21C0CE01DF9162
:101E7000CF910895863E910561F1873E910571F1FC
:101E8000843E910509F0B5CF8091970581FFEECF93
:101E900080919605C7EED0E084FD0DC0E7CF80911C
:101EA000960580FD12C19091970590FFDFCFC3EE9C
:101EB000D0E084FFDBCFD0E0C0E0D8CF80919605A2
:101EC00082FD06C19091970590FDBFCF84FFCECFD4
:101ED000F2CF8091960583FDDDCFC8CF8091960526
:101EE00083FDF9C09091970591FFF0CFC4EED0E04B
:101EF000BDCF8091960585FFB9CFC9E2D0E0B6CFBE
:101F00008091960585FFB2CFC5E3D0E0AFCF809139
:101F1000960586FFABCFCAE2D0E0A8CF80919605A8
:101F200086FFA4CFC1E3D0E0A1CFCF3BD10518F607
:101F3000C85AD0E0CC0FDD1FC15EDE4F0990D881BA
:101F4000C02DD46493CFC11540E2D40758F4C11515
:101F500081E0D80708F08ACFC03FD10508F4ABCFA5
:101F6000D06584CFC11590E4D90708F4A4CFDF7001
:101F7000D06A7CCFC11525E5D20700F5C11534E53F
:101F8000D30708F08AC0C11543E5D40708F071C033
:101F9000C11582E5D80708F467C0CE018370992780
:101FA00021E030E002C0220F331F8A95E2F7C69588
:101FB000C69580E2C89FE001112452C0C11599E581
:101FC000D907A8F4C11528E5D20708F06BC0C115E0
:101FD00036E5D30708F06FCF8C2F0E94A30EC82FD1
:101FE000D0E0DC2FCC27CC27DF71D0623FCFC115EA
:101FF0004AE5D40708F45BC0CE01905681159042A3
:1020000008F059CF8D2F8F710E94A30E90E0982F6A
:10201000882788279F719C012C2BE901E6CFC55AA0
:10202000D0E0C45EDE4FC881D0E0D0641FCFCE01C7
:10203000E4E096958795EA95E1F783702C2F269535
:102040002695237040E2249F90011124382B8C2F79
:102050008370C1E0D0E002C0CC0FDD1F8A95E2F7AB
:10206000C22BD32BDC6802CFDC2FCC27C16FD06A08
:10207000FDCECE018370992721E030E002C0220F0F
:10208000331F8A95E2F7C695C69590E2C99FE00195
:102090001124C22BD32BDA68E9CEDC2FCC27C46FF6
:1020A000D06AE4CEDC2FCC27C06FD06ADFCE8C2F75
:1020B0008F700E94A30E34E0D695C7953A95E1F74C
:1020C000CF709C2FEC01D069D1CEC9E3D0E0CECE49
:1020D000C2EED0E0CBCEC6EED0E0C8CE80918B036E
:1020E000811110928B030895809590918A03982313
:1020F00090938A03089580918A0390918903892B94
:1021000090918803892B8093100390918B039923DE
:10211000A1F0892B8093100380911401882341F151
:102120008091960587FF24C08EE1E2E1F3E090E024
:10213000815000F591110E946E10E0918D05F09193
:102140008E053097E1F080911401882359F0809139
:10215000960587FF07C0809110038093110386E0E6
:10216000809310030280F381E02D80E193E00994D5
:1021700086E0DBCF21912223D9F29F5FD9CF08954A
:102180008091860390915503981301C008958F5F45
:102190008770FACF2FE0929F800D1124982F9770AF
:1021A00086958695869523E0829FF0011124EF5C49
:1021B000FC4F50E040E080E0219130E0092E02C069
:1021C000369527950A94E2F721703327042E01C033
:1021D000220F0A94EAF7822B4F5F5F4F433051057D
:1021E00059F708952FE0929F800D1124982F977032
:1021F00041E001C0440F9A95EAF786958695869549
:1022000093E0899FF0011124EF5CFC4F90E080E0A7
:1022100070E05191DF0111979B01082E02C03695A5
:1022200027950A94E2F72170219525272423252755
:102230002C9301968330910561F7089590E080E03A
:102240000E94C50590E080E00E94AF0510928903CE
:10225000109288030E947B1086E0E7EBF3E0DF0139
:102260001D928A95E9F71092B1031092B003109273
:10227000B2030C944E0D809301060C941E118091B4
:102280000106982F9670963019F488600C943B11D3
:10229000877FFCCF21E030E001C0220F8A95EAF76A
:1022A00020958091010682230C943B119091870325
:1022B0008095892380938703282F277091F4282FF6
:1022C000082E000C330B9217130659F090919705C6
:1022D00092FD07C08595859585950E944A111092BB
:1022E0008703089521E030E001C0220F8A95EAF7C4
:1022F00080910106822B0C943B1180938C030C94EB
:102300001E11882321F00E9474100C947B100895F4
:10231000882339F090918A03982B90938A030C9428
:102320007B100895882379F19CEF980F913A38F447
:10233000682F80E193E00E9450050C947B1090E29E
:10234000980F983050F4877091E001C0990F8A95EA
:10235000EAF7892F0E947410F0CF9BE5980F933015
:1023600020F490E080E00C94C50598E5980F973133
:1023700020F490E080E00C94AF05803F20F00E94B4
:10238000750D0C944E0D0895CF93C82F882309F432
:102390006FC08CEF8C0F813AC0F5809114018823B7
:1023A00011F18091960587FF1EC0EC2FE695E6950A
:1023B000E695F0E0E05FFC4F828190E04C2F4770A3
:1023C00021E030E002C0220F331F4A95E2F782235A
:1023D0009323892B91F06C2F80E193E00E945005AC
:1023E0000E947B100AC0E2E1F3E088E193E02191D2
:1023F000C21789F38E179F07D1F76C2F80E193E006
:102400000E947A05CF910C947B1080E28C0F88306B
:1024100068F4C77021E030E001C0220FCA95EAF7E6
:1024200080918A03822B80938A03ECCFEBE5EC0F3B
:10243000E33040F4F0E0E45EFE4F808190E0CF9125
:102440000C94C505E8E5EC0FE73150F4F0E0EE0F31
:10245000FF1FE15EFE4F80819181CF910C94AF050B
:10246000C03F30F08C2F0E94300ECF910C944E0D57
:10247000CF9108958093980570939A05609399057C
:102480008091C0058430F9F48093E9008FEF90913A
:10249000E800815095FD06C095ED9A95F1F7000092
:1024A0008111F5CF8091E80085FF0DC050E040E03C
:1024B00063E070E088E995E00E94F7038091E8000E
:1024C0008E778093E8000895BC0184E00C943A1262
:1024D000BC0183E00C943A129C0184E08093E900F3
:1024E0009FEF8091E800915085FD06C085ED8A95AB
:1024F000F1F700009111F5CF8091E80085FF0CC045
:1025000050E040E066E070E0C9010E94F70380916E
:10251000E8008E778093E8000895CF93DF93EC0175
:10252000809114018823B1F18091960587FF32C014
:1025300060E284E08093E9008FEF9091E8008150A1
:1025400095FD06C095ED9A95F1F700008111F5CF44
:102550008091E80085FF1BC08091140170E050E07D
:1025600040E0811104C050E040E068E070E0CE013E
:102570000E94F7038091E8008E778093E80080E264
:10258000FE01AEE9B5E001900D928A95E1F7DF9189
:10259000CF91089568E081E0CDCF81E08093E000A5
:1025A00080E28093D8001092C9008FE19EE40197E9
:1025B000F1F700C0000087E090EBDC018093020699
:1025C00090930306A0930406B093050688E19CE06F
:1025D0000FB6F894A895809360000FBE90936000AA
:1025E000FFCF279A35B13F7725B120684FB7F894D0
:1025F00081E494E0FC015191CF0168E025B900002D
:1026000000C057FF35B9550F000000C000C000C022
:1026100035B900C06A9591F7F5E08B389F0751F7FF
:102620004FBF8FE594E00197F1F700C000000895D7
:102630001F93CF93DF93182FD0E0C0E0893311F4BC
:10264000C0E5D0E0812F0E94C411209731F4812F82
:10265000DF91CF911F910C9492118FE99FE0019728
:10266000F1F700C000002197F0CF0F931F93CF9395
:10267000DF93C62FD42F022FFC0182818823A1F083
:102680006093F9050E9444059093F8058093F7053F
:10269000C77081E001C0880FCA95EAF7DF91CF913A
:1026A0001F910F910C9488118091F905681335C022
:1026B0008091F7059091F8050E943505883C9105B9
:1026C00060F510E21D0FCD17B9F080E28C0F883055
:1026D00040F4C77081E001C0880FCA95EAF70E94F4
:1026E0008111183048F481E09D2F977001C0880F48
:1026F0009A95EAF70E948811802F0E9418131830CB
:1027000098F4D77081E001C0880FDA95EAF7DF917D
:10271000CF911F910F910C948111C77081E001C07E
:10272000880FCA95EAF7F3CFDF91CF911F910F91F0
:102730000895CF93DF93CFE7D2E060E0CE010E940F
:10274000552F2196C11584E0D807B9F7DF91CF91B5
:1027500008956F927F928F929F92AF92BF92CF9285
:10276000DF92EF92FF920F931F93CF93DF9384E753
:10277000C82E83E0D82E9BEDE92EF12CE701C65937
:10278000D10936011BC0F50185909490692DC801CF
:102790000E94552F682DC80101960E94552F82E096
:1027A000A80EB11C0E5F1F4FC017D10761F78EE155
:1027B000680E711C6E96CE15DF0529F08E010E5144
:1027C00011095301E0CF7E0186E9E80EF11C86E98C
:1027D000C80ED11C83E3E81683E0F80679F6DF9192
:1027E000CF911F910F91FF90EF90DF90CF90BF900E
:1027F000AF909F908F907F906F900895CF93C82F48
:102800006FEF811162E283E290E00E94552F6FEF3B
:10281000C11163E084E290E00E94552F6FEFC11177
:1028200065E085E290E0CF910C94552F80E00E9406
:10283000FE1360E086E290E00E94552F0E94A913EB
:102840000E94991381E00C94FE13CF93C92F682F37
:1028500084E090E00E94552F6C2F82E290E0CF91AF
:102860000C94552F9091970592FB222720F9281759
:1028700069F080FB92F9909397058091960590916D
:1028800097050E94251482E00C94561108950F9329
:102890001F93CF93DF93C42FD0E0CC0FDD1F2EE129
:1028A000629FC00DD11D112436E9839FC00DD11D3B
:1028B0001124CE0187960E94312F082F10E0102F8F
:1028C0000027CE0188960E94312F9801282BC9013C
:1028D000DF91CF911F910F910895462F843038F4E6
:1028E000753028F46F3018F4672F0C94471490E07B
:1028F00080E00895CF92DF92FF920F931F93CF93C2
:10290000DF936C010091010680918C03082BC7E0D6
:10291000D0E010E0FC2EC8010C2E02C095958795E2
:102920000A94E2F780FD0CC02197A0F7F12C8F2DBF
:10293000DF91CF911F910F91FF90DF90CF9008957D
:10294000B6018C2F0E946D140E94E60E019761F370
:10295000EECFCF93DF93EC010E947A14BE010E9468
:102960006D14DF91CF910C94E60EFC018081918172
:102970000E94A914292F2F7092959F7092509E301B
:1029800078F4E92FF0E0E252F04D0C94A22E803F53
:1029900019F020F4883E20F481E00895843FE1F3AB
:1029A00080E00895883EC0F3813FD1F7F5CF822FB4
:1029B000869586958695089583E290E00E94312F52
:1029C000823289F484E290E00E94312F833059F4FE
:1029D00085E290E00E94312F91E0853009F090E08F
:1029E000892F8170089580E0FCCFCF9384E090E040
:1029F0000E94312FC82F82E290E00E94312F982F41
:102A00008C2FCF9108951F93CF93DF93EC01FC019E
:102A1000E156FD4F80816823C9F00E94FB2E182FDC
:102A20000E94FB2E8F77782F20E8720F08F47FEF3B
:102A3000612F8091FE050E94EE09462F282F672FF7
:102A4000CE01DF91CF911F910C946708DF91CF9158
:102A50001F910895DF92EF92FF920F931F93CF93F0
:102A6000DF938C01FC01E156FD4F8081682381F1E9
:102A7000D090FD05D091FE05C091FC05EC2EF12C07
:102A80000E94FB2E282FC7018C549F4F68E671E0EF
:102A90000E948E2E8E199F0997FD03969595879516
:102AA0009595879523706C2F289F600D11247D2D9F
:102AB0008D2F0E94EE09462F282F672FC801DF9126
:102AC000CF911F910F91FF90EF90DF900C946708CA
:102AD000DF91CF911F910F91FF90EF90DF900895BC
:102AE0005F926F927F928F929F92AF92BF92CF929E
:102AF000DF92EF92FF920F931F93CF93DF9380911A
:102B0000E6039091E703A091E803B091E9032FB7A2
:102B1000F8948090920590909305A0909405B090C1
:102B200095052FBF75016401C81AD90AEA0AFB0A84
:102B30002FB7F894409192055091930560919405B8
:102B4000709195052FBF4093E6035093E703609380
:102B5000E8037093E9031091BD03EDEBF3E0C12F9F
:102B6000D0E00197AF4FBF4F88199909AA09BB0957
:102B70001D1327C0C093BD038091FB05182F137050
:102B800019F0182F1695169590911801913009F4A7
:102B900042C0992349F1923009F495C4933009F465
:102BA0009BC4DF91CF911F910F91FF90EF90DF9029
:102BB000CF90BF90AF909F908F907F906F905F90DD
:102BC0000895218D328D4901B12CA12C88159905CC
:102BD000AA05BB0520F4C150DF5F3296C9CF2C0D8A
:102BE0003D1D328F218FF8CF109215014093CA05F9
:102BF0005093CB056093CC057093CD0589E2EDEB46
:102C0000F3E0AEECB5E001900D928A95E1F781E03A
:102C100080931801C6CF90911301191322C08370BD
:102C20002091120130E091E08217130609F490E040
:102C3000892F817080931701809100069091160171
:102C4000981739F08093160140E060E080E00E9420
:102C500065081A3260F4E12FF0E0E451F04D0C9475
:102C6000A22E81E0E6CF80911701811102C0C0E061
:102C700097C140E060E080E00E946508F8CFC09115
:102C8000150186E1C89FC02D112406E10C0FF02E1E
:102C90000F3610F06EE6F62E6091FC057091FD0582
:102CA0008091FE050E94EE09E62ED72EC82ED0E0B8
:102CB000CF1528F0C1E00E3608F472C1D8CFFE015E
:102CC000E156FD4F808190911601892331F02C2D22
:102CD0004E2D6D2DCE010E9467082196E9CFC0913F
:102CE000150186E1C89FC02D112406E10C0FF02EBE
:102CF0000F3610F05EE6F52ED090FD05E090FE0553
:102D0000D091FC056D2F7D2D8E2D0E94EE09C62ED3
:102D1000B72EA82E6091FF056D0F7D2D8E2D0E9480
:102D2000EE09E62ED72E982ED0E0CF1518F6FE012C
:102D3000E156FD4F908180911601892359F0292D8C
:102D40004E2D6D2D90FD03C02A2D4C2D6B2DCE01E7
:102D50000E9467082196E9CFC091150186E1C89FBE
:102D6000C02D112406E10C0FE02E0F3610F04EE6B8
:102D7000E42ED090FD05C090FE052091FF0530E4C3
:102D8000F32E3F2D329F312D1124F32ED0E0CE159E
:102D900008F090CFFE01E156FD4F80819091160121
:102DA0008923B9F0FE01EE0FFF1FEC53FE4F808127
:102DB00082958F706091FC058F9D600D11247D2D93
:102DC0008C2D0E94EE09462F282F672FCE010E94DE
:102DD00067082196DCCFC091150186E1C89FC02D00
:102DE000112406E10C0FE02E0F3610F08EE6E82ECF
:102DF000D090FD05C090FE052091FF05D0E4FD2E8A
:102E00003F2D329F312D1124F32ED0E0CE1508F046
:102E100051CFFE01E156FD4F80819091160189232B
:102E2000D9F0FE01EE0FFF1FED53FE4F6081F69EBD
:102E3000B0011124B5E075956795BA95E1F78091D9
:102E4000FC05680F7D2D8C2D0E94EE09462F282F42
:102E5000672FCE010E9467082196D8CFC091150137
:102E600086E1C89FC02D112406E10C0FF02E0F360D
:102E700010F07EE6F72EE090FC05D091FD05D09095
:102E8000FE056091FF056695669566958091CA0579
:102E90009091CB050E94E4090E943509805887FD76
:102EA0008195880F282F3D2D239F212D1124822FBE
:102EB0006E2D7D2F0E94EE09E62ED72EC82ED0E073
:102EC000CF1508F0F7CEFE01E156FD4F80819091BD
:102ED0001601892331F02C2D4E2D6D2DCE010E942F
:102EE00067082196EDCF8CE398E00E94C50B07C0E0
:102EF00082E198E0FACF87E199E00E94F20CC82FB6
:102F00004FC088EF98E0F9CF8DED98E00E94750CE6
:102F1000F6CF81EC98E0FACF80E198E0E6CF87E049
:102F200098E0E3CF8EEF97E0E0CF85EE97E0DDCF3E
:102F300087ED97E0EBCF8CEB99E0DFCF80EB98E06B
:102F4000DCCF8CE998E0E2CF8AEA97E00E94130C8C
:102F5000D6CF8CE797E0FACF85E497E0F7CFC09122
:102F60001701C1115CC06091FF0520E1620F08F4F8
:102F70006FEF8091CA059091CB050E94E4096AE049
:102F800070E00E947A2E892B09F071CE0E94FB2EF0
:102F90006EE670E00E948E2E609116010E942A1546
:102FA000809115018F5F80931501C11164C292E079
:102FB000909318019091170191115DC2112309F4AA
:102FC00089C2C6E18C9FC02D11249AEEC92ECC0E69
:102FD000FC2ECF3610F08EE6F82E80913D0480FD59
:102FE0004EC20E94DB0581FD62C280913D0481FFDB
:102FF000D8CDC6E4D0E0D12C0F2D10E0CC15DD05E6
:1030000048F00C171D0730F020E040E060E0CE01F2
:103010000E9467082196CE36D10581F7C2CDC091B6
:10302000150186E1C89FC02D112406E10C0F802FE9
:103030000F3608F08EE6D0E0E82EF12CCE15DF0535
:103040000CF038CE60911601CE010E942A1521960F
:10305000F5CFC0911701C1111EC06091FF0520E19D
:10306000620F08F46FEF8091CA059091CB050E9422
:10307000E40965E070E00E947A2E892B09F0F7CD13
:103080000E94FB2E6EE670E00E948E2E609116016B
:103090000E94031585CFC091150186E1C89FC02D00
:1030A000112406E10C0F802F0F3608F08EE6D0E0D9
:1030B000E82EF12CCE15DF050CF0FCCD6091160149
:1030C000CE010E9403152196F5CFC091150186E12E
:1030D000C89FC02D112406E10C0FF02E0F3610F002
:1030E0006EE6F62ED090FD05E090FE05D091FC0531
:1030F0006091FF056695669566958091CA059091E9
:10310000CB050E94E4090E943509805887FD81950E
:10311000880F682F2CE0629F612D11246D0F7D2D8B
:103120008E2D0E94EE09E62ED72EC82ED0E0CF15A8
:1031300008F0C0CDFE01E156FD4F8081909116014F
:10314000892331F02C2D4E2D6D2DCE010E94670864
:103150002196EDCF84E599E0C8CE84E397E0C5CE13
:103160004091EA035091EB036091EC037091ED0301
:103170008091CA059091CB05A091CC05B091CD0569
:1031800084179507A607B70708F471CD0E94770941
:10319000082F0E9477099EE6891BF0F7890FC82F38
:1031A000D0E0FE01E156FD4F809116019081892308
:1031B00009F45FC120E040E060E001FD13C00E941F
:1031C0007709082F0E947709782F76952FE7720FDD
:1031D00008F47FEF602F8091FE050E94EE09462FD4
:1031E000282F672FCE010E9467082091FF0530E14C
:1031F000230F08F42FEF60E1822F90E00E94E40992
:10320000BC0184EF91E00E947A2E8091CA059091D2
:10321000CB05A091CC05B091CD05860F971FA11DC0
:10322000B11D8093EA039093EB03A093EC03B0935A
:10323000ED031DCD4091390450913A0460913B0457
:1032400070913C048091CA059091CB05A091CC056A
:10325000B091CD0584179507A607B70708F407CDE9
:103260006091FC057091FD058091FE050E94EE09BC
:10327000062F772E682ECEEED3E048E7A42E41E04D
:10328000B42E5EE0E52EF12C67018EE0C81AD1085D
:1032900026E0522EF601E251FC4F4F01F601E858AC
:1032A000FE4F808190E0F4012081222309F480C048
:1032B000262D402F672D0E946708F40181818083AD
:1032C0005A94FFEFCF1ADF0A5110E4CF670137E0BD
:1032D000532E960122513C4F4901F601E858FE4F0A
:1032E000808190E0F9012081222309F465C0262D18
:1032F000402F672D0E946708F40131978081F40107
:1033000080835A94F1E0CF1AD1085110E2CFF50131
:10331000878190E02F81222309F452C0262D402F6F
:10332000672D0E946708F501868190E02E81222397
:1033300009F44AC0262D402F672D0E9467080E947D
:103340007709837091E009F090E09E839F832F9628
:10335000FFE0AF0EB11C2FE0E20EF11C39E5E316E1
:10336000F10409F091CF2091FF0530E1230F08F41B
:103370002FEF60E1822F90E00E94E409BC0188EB0E
:103380009BE00E947A2E8091CA059091CB05A09176
:10339000CC05B091CD05860F971FA11DB11D80935F
:1033A000390490933A04A0933B04B0933C045FCC5F
:1033B00020E040E060E07FCF20E040E060E09ACF96
:1033C00020E040E060E0ADCF20E040E060E0B5CF3D
:1033D0008DE297E00E944C0B92CD87E297E0FACF06
:1033E0008091CE0521E0382F321B08F430E0832F86
:1033F0006EE077E00E94820A82CD6EE077E080E0A6
:10340000F9CF8091CE0521E0382F321B08F430E04F
:10341000832F63ED76E0EECF63ED76E0F0CF809121
:10342000CE0521E0382F321B08F430E0832F61EA0B
:1034300076E0E0CF61EA76E0E2CF8091CE0521E050
:10344000382F321B08F430E0832F69E876E0D2CFC2
:1034500069E876E0D4CF8091CE0521E0382F321B89
:1034600008F430E0832F63E776E0C4CF63E776E0CB
:10347000C6CFC1E095CD112309F493CBA2CD10E0C6
:1034800000E0AC2CB12C8F2C912C0A151B0548F0B8
:103490008016910630F020E040E060E0C8010E9414
:1034A00067080F5F1F4F0634110579F79ACDCA518F
:1034B000C73108F09ACD2FEF4FEF60E08AE190E03E
:1034C0000E94670892CD10931301837080931201BC
:1034D0000E94F11283E09CCB8091FA05882351F081
:1034E00046E050E06CE170E08BEF95E00E94452FE4
:1034F0001092FA054091CA055091CB056091CC0518
:103500007091CD052FB7F894809192059091930515
:10351000A0919405B09195052FBF841B950BA60B28
:10352000B70B4097A105B10508F43BCB10921801E9
:1035300038CBEBEFF5E085E3808380911901909122
:103540001A01A0911B0181839283A3838FE7848357
:103550008FEF858346E050E06CE170E0CF010E9480
:10356000452F1092FA05089510928A038091140154
:10357000E2E1F3E0882359F08091960587FF07C0C8
:103580008EE1DF011D928A95E9F70C941E1186E009
:10359000F8CF1F93CF93DF93CDB7DEB7AA970FB6BF
:1035A000F894DEBF0FBECDBF82EC95E02091F10014
:1035B000DC012D93CD01B5E08A3C9B07B9F78091E2
:1035C000C305833009F472C0B8F4813009F449C0EE
:1035D000823009F4B3C08091E80083FF8BC28091F0
:1035E000C2059091C3059A3008F084C2E92FF0E03B
:1035F000EA5EFF4C0C94A22E8A3009F48EC08B3008
:1036000009F471C0893039F78091C205813219F708
:103610008091C6059091C705009711F00297D9F6E1
:103620008091E800877F8093E8008091E80082FF26
:1036300038C09091F3008091F200029731F48091AC
:10364000F100813011F0863021F48091F1008093F7
:103650009D058091E8008B778093E8000E9421040B
:10366000BACF8091C205813A09F0B5CF8091E800C8
:10367000877F8093E8008091C6059091C705892BCC
:1036800061F460E28EE995E070E00E94D3048091DD
:10369000E8008B778093E8009ECF60E090E080E0C8
:1036A000F3CF8091C0058111C0CF95CF8091C20525
:1036B000813A09F090CF8091C6059091C705892B7A
:1036C00009F089CF8091E800877F8093E80080919E
:1036D000E80080FFFCCF809114018093F10080917D
:1036E000E8008E77B9CF8091C205813209F073CF9F
:1036F0008091C6059091C705892B09F06CCF809108
:10370000E800877F8093E8000E9421048091C4052F
:10371000809314010E94B41A5ECF8091C205813259
:1037200009F059CF8091E800877F8093E8000E94DC
:1037300021048091C50580939C054DCF8091C205E1
:10374000813A09F048CF8091E800877F8093E800B4
:103750008091E80080FFFCCF80919C05BECF80382F
:1037600099F0823809F0C6C18091C6058F70873004
:1037700008F0C0C18093E9008091EB0085FB8827A9
:1037800080F91092E90006C08091BE059091BF05B6
:10379000911182609091E800977F9093E800809368
:1037A000F1001092F1008091E8008E779FC188238C
:1037B00009F48DC1823009F09DC18091C405811149
:1037C00090C18091C6058F702FEF280F263008F02A
:1037D00091C18093E9002091EB0020FF82C19330DA
:1037E00031F48091EB0080628093EB007AC190917C
:1037F000EB0090619093EB0021E030E001C0220FDC
:103800008A95EAF72093EA001092EA008091EB0093
:103810008860EACF81116EC11091C4051F77809135
:10382000E3008078812B8093E3008091E800877F1C
:103830008093E8000E9421048091E80080FFFCCF83
:103840008091E30080688093E30082E0111183E0BF
:103850008093C0054FC18058823008F04BC1209141
:10386000C4053091C5052C3DE3E03E07A1F583E09A
:103870008A838AE289834FB7F894DE01139620E0A9
:103880003EE051E2E32FF0E050935700E49120FF37
:1038900003C0E295EF703F5FEF708E2F90E0EA304B
:1038A000C0F0C7968D939D932F5F243159F74FBF7A
:1038B0008091E800877F8093E8006AE270E0CE01A3
:1038C00001960E94D3048091E8008B778093E800F2
:1038D00011C1C096E7CF8091C6059091C705432FCF
:1038E00055274330510509F44AC078F54130510558
:1038F00009F47AC08BE590E0ECECF5E0423051053C
:1039000009F0F8C02091E800277F2093E80020917B
:10391000C8053091C9058217930708F49C0140E05F
:103920002115310509F065C0411163C08091E8009F
:1039300082FDC9CF8091C005882329F2853019F214
:103940008091E80083FFF2CFBECF4132510509F4E8
:103950003CC04232510509F0CDC08330910508F0DA
:10396000C9C0FC01EE0FFF1FE459FE4F0190F0812A
:10397000E02D87599E4FDC018C9190E01AC03327CF
:1039800021303105D1F02115310561F022303105AA
:1039900009F0B0C0E9E3F6E0E4918E2F90E0E9E3AE
:1039A000F6E007C0E5E6F6E0E4918E2F90E0E5E66C
:1039B000F6E0009709F49EC0A5CFEDE4F6E0E491AF
:1039C0008E2F90E0EDE4F6E0F4CF8330910508F01F
:1039D00091C0880F991FFC01EE58FE4F0190F081B5
:1039E000E02D89E090E08ECF82E190E0E7E2F6E022
:1039F00089CF8091C005882309F465CF853009F40B
:103A000062CF8091E80083FD5ECF8091E80082FD67
:103A10008DCF8091E80080FF83CF9091F30080915B
:103A2000F2002115310519F08830910550F041E080
:103A3000089709F040E08091E8008E778093E800D5
:103A40006FCF44914093F100319621503109019696
:103A5000E8CF803809F04EC08091E800877F8093DE
:103A6000E8008091C1058093F1009DCE811142C094
:103A70001091C4051230F0F58091E800877F8093A3
:103A8000E8001093C1050E942104112311F084E085
:103A900005C08091E30087FDFACF81E08093C005E7
:103AA00042E061EC81E00E94400442E261EC84E08B
:103AB0000E94400442E261EC82E00E94400442E243
:103AC00060EC83E00E9440048091C00513C08091A7
:103AD000C405813079F481E0933009F080E080936F
:103AE000BF051092E9008091E800877F8093E8008D
:103AF0000E9421048091E80083FF0AC08091E800C1
:103B0000877F8093E8008091EB0080628093EB00D8
:103B1000AA960FB6F894DEBF0FBECDBFDF91CF914E
:103B20001F9108954F925F926F927F928F929F9212
:103B3000AF92BF92CF92DF92EF92FF920F931F93BB
:103B4000CF93DF93CDB7DEB72A970FB6F894DEBFD9
:103B50000FBECDBF8E010F5F1F4F8AE0F80111929B
:103B60008A95E9F79DE4E92E91E0F92E680122E5B6
:103B7000422E21E0522E66246394712C41E6842E5D
:103B800041E0942EF70181917F018F3F09F445C0F8
:103B9000F894E82FE295EF70F0E021A18F70A30177
:103BA00002C0440F551F8A95E2F7CA01922F982B45
:103BB00091A392A18095892382A3789400C0E2E525
:103BC000F1E021E030E0B12CA12C41914F3F09F40C
:103BD0007EC0A42FA295AF70B0E090968C9190E03B
:103BE0004F7002C0959587954A95E2F780FD6FC0AA
:103BF000C901A82AB92A220F331F8E169F0629F75A
:103C0000F701319780818F3F11F00E948C0E50EAAE
:103C10005A95F1F7F601B182A082F2E0CF0ED11CE5
:103C20004E145F0409F0AECF4AE050E0B80180E9DD
:103C300093E00E940B2FFF24F394009709F4F12CDA
:103C4000892B09F447C08AE0F801A0E9B3E00190AC
:103C50000D928A95E1F781E080938F030E944405DD
:103C600090938E0380938D0380918D0390918E03AA
:103C70000E943505059790F18091900390919103F2
:103C80009093A7038093A60380919203909193034E
:103C90009093A9038093A803809194039091950336
:103CA0009093AB038093AA0380919603909197031E
:103CB0009093AD038093AC03809198039091990306
:103CC0009093AF038093AE0310928F0307C090E0F0
:103CD00080E08FCF80918F038111C6CF8F2D2A96E0
:103CE0000FB6F894DEBF0FBECDBFDF91CF911F910D
:103CF0000F91FF90EF90DF90CF90BF90AF909F908B
:103D00008F907F906F905F904F90089590E080E04B
:103D10000E943F2F893E9E4F11F40C94DC1480E0EA
:103D2000089569EE7EEF90E080E00E94732F60E0DE
:103D300082E090E00E94552F60E083E090E00E94D6
:103D4000552F10928C0360E084E090E00E94552F84
:103D500060E082E290E00E94552F60E085E090E014
:103D60000E94552F60E086E090E00E94552F6FEF93
:103D700087E090E00E94552F40E050E0BA0188E0D3
:103D800090E00E94672F60E08DE090E00E94552F48
:103D900040E050E0BA0188E190E00E94672F60E0C7
:103DA00087E190E00E94552F40E050E0BA018CE19D
:103DB00090E00E94672F70E060E080E290E00E9457
:103DC000732F40E050E0BA0188E190E00E94672F35
:103DD00080E00E94FE130E94161440E050E0BA01F9
:103DE0008FE090E00E94672F40E050E0BA0183E14D
:103DF00090E00C94672F3F924F925F926F927F9268
:103E00008F929F92AF92BF92CF92DF92EF92FF92EA
:103E10000F931F93CF93DF9300D000D00F92CDB7B5
:103E2000DEB78C01FC0183819481892B31F0808184
:103E3000918189238F3F09F0A3C50F900F900F90B8
:103E40000F900F90DF91CF911F910F91FF90EF9006
:103E5000DF90CF90BF90AF909F908F907F906F90AA
:103E60005F904F903F9008950E947A14F82E682F2B
:103E700089819A810E94F21069817A818F2D0E9436
:103E80006D147C01F8018281882309F46CC59701C7
:103E900022513F452031310508F02EC58FEF93E0C8
:103EA0000E94312FFEEEEF0E5FE7852E52E0952E39
:103EB0008823A1F180918703877009F4BECFF801B0
:103EC0008281882309F4B9CF8091970582FDB5CF0F
:103ED00082E00F900F900F900F900F90DF91CF9195
:103EE0001F910F91FF90EF90DF90CF90BF90AF9018
:103EF0009F908F907F906F905F904F903F900C9429
:103F00005611811424E09206A9F2C4010E94312FB7
:103F1000811101C0EA943FEF831A930AE110F1CFB7
:103F20001C821B82442443944AE0342E74018FEF98
:103F3000E81AF80AC4010E94312F89831A82882363
:103F400009F4B8CF9FEF980F933000F58A83498228
:103F500092E0890E911CC7010E94312F8B83882328
:103F600009F4A8CFFE0131967F01F70120812223B9
:103F7000E9F2213009F049C091818281913041F408
:103F8000F2E0EF0EF11C0E94181309C04701EACFBE
:103F9000923049F422E0E20EF11C0E94C4113FEF7E
:103FA000E31AF30AE2CF933031F432E0E30EF11C6E
:103FB0000E949211F4CF943021F08FEFE81AF80AA2
:103FC000EECF92E0E90EF11C30E020E0B7016F5F28
:103FD0007F4FF70141818053990B8A30910550F052
:103FE00021503109E0F28FE99FE00197F1F700C01D
:103FF0000000F6CF329EF001339EF00D11249C019B
:104000002E0F3F1F842F7B01E1CFE22FF0E0EC5019
:10401000FE4F5490822F86958695869590E0FC0100
:10402000EC51FE4F64902770712C022E02C07594E3
:1040300067940A94E2F7E1E06E227724FC01EC52E7
:10404000FE4FA490B12C022E02C0B594A7940A94FE
:10405000E2F7F1E0AF22BB24FC01EC53FE4FC49029
:10406000D12C02C0D594C7942A95E2F721E0C22250
:10407000DD246114710419F081EE0E94C411A114B1
:10408000B10419F086EE0E94C411852D0E94181308
:10409000AB2819F086EE0E949211672819F081EE84
:1040A0000E949211CD2809F47ACF8CE26CCF81E086
:1040B0000E9472110E943F11FDCE81E00E944A11C0
:1040C000F9CF82E0F5CF882309F4F4CE90913D0436
:1040D000892F8E7F90FF816080933D0440913D0445
:1040E00050913E0460913F047091400483E190E060
:1040F0000E94672FDFCE882309F4DCCE90913D0427
:10410000892F8D7F91FF8260E7CFF5EFEF16FCE5F9
:10411000FF0609F463C008F45DC027E245EE66EED1
:1041200036EFE3163CE5F30609F419C4882309F4D5
:1041300038C41092F90583E0E8168DE5F80608F01A
:1041400054C09AEFE9169CE5F90630F4C701825095
:104150009C45449708F04FC00E94F5149093970532
:1041600080939605F0E1EF16FCE5FF0609F421C106
:1041700008F090C038E0E3163CE5F30609F403C10B
:1041800008F060C094E0E9169CE5F90609F4E9C07E
:1041900008F049C0F2E0EF16FCE5FF0609F4DBC0C9
:1041A00080919605826023E0E2162CE5F20609F480
:1041B000D5C080919605909197050E9425140E9484
:1041C000B41A78CE27E245EE65EEC9C326E241EE89
:1041D00060EEC5C327E245EE64EEC1C326E241EEC0
:1041E00062EEBDC328E241E0EFCFE1E6EE16EDE579
:1041F000FE0609F4B1CF80918A0336E1E3163CE56F
:10420000F30609F0DDC38A7A91E009F490E0909317
:10421000300369E2811165E380E193E00E947A0551
:104220000E947B1047CE80919605806136E0E316B0
:104230003CE5F30609F492C008F497C08091960516
:1042400080628CC0809196058D7F9CE0E9169CE58C
:10425000F90609F483C078F4809196058C60FAE041
:10426000EF16FCE5FF0609F479C008F490C08091D0
:1042700096058E7F73C080919605877F3EE0E3169A
:104280003CE5F30609F46AC008F48BC080919605FA
:104290008F7E64C09CEFE9169CE5F90609F485C0A1
:1042A00068F5F4E1EF16FCE5FF0609F49AC060F446
:1042B00032E1E3163CE5F30609F483C008F47DC05F
:1042C00080919605837F4AC09AEFE9169CE5F9062E
:1042D00009F44FC008F053C0F5E1EF16FCE5FF0606
:1042E00009F067CF8091960582FB992790F921E02C
:1042F000922790FB82F990FB83F930C0E1142DE501
:10430000F20609F464C090F48EEFE8168CE5F80626
:1043100009F443C0809197058D7F9FEFE9169CE5D6
:10432000F90650F1809197058C7F26C0E2E0EE16E9
:10433000EDE5FE0609F464C008F45CC021E6E2166F
:104340002DE5F20609F035CF90919605892F8F7EE5
:1043500094FF806103C080919605816080939605EB
:1043600028CF809196058460F9CF8091960588606A
:10437000F5CF809197058160809397051ACF809142
:1043800097058260F9CF809196058064E7CF0E94FF
:10439000B41A809196058068E1CF8091970583607B
:1043A000EBCF809196058B7FD9CF809197058E7F3B
:1043B000E3CF809196058F7DD1CF809196058F7B3D
:1043C000CDCF0E94B41A809196058F77C7CF809188
:1043D0009705982F909591708E7F892B90FB81F98E
:1043E000CBCF0E94B41A90919605892F97FB87F93D
:1043F0008058B4CF61E08EE090E00E94552FD9CE76
:1044000060E0F9CF8091FB0591E089278093FB055F
:10441000109218018091FA0581608093FA054ACDC7
:1044200040E656E069E676E00E94E70543CD49E6BE
:1044300056E060E676E0F8CF4EE456E067E576E0D9
:10444000F3CF47E556E06EE476E0EECF46E356E084
:1044500062E476E0E9CF42E456E066E376E0E4CF5A
:104460004AE256E06EE176E0DFCF42E056E060E1FE
:1044700076E0DACF40E156E062E076E0D5CF81E049
:104480000E947E0317CD8DE0FBCF2BE5E2162DE5D4
:10449000F20611F13CE5E3163DE5F30609F0C2C270
:1044A0008091970582FB882780F991E089270E94F7
:1044B0003214B8C20E94B41A8FEF94E3ECE081503A
:1044C0009040E040E1F700C000000E94CD120E9441
:1044D000911EF0CC81E0EBCF80E0E9CFC7010E94D4
:1044E000CA10D82EAEC22F2D2F70C22E8F2D807FD6
:1044F00019F0C29490EFC922DD20B9F0CC2069F008
:1045000080E28E0D883010F0811009C080918A03FE
:10451000C82AC0928A030E947B108E2D4DC08091C4
:104520008903C82AC0928903F6CF8E2D0E9492116A
:10453000CC2009F443C080E28E0D883010F0811049
:1045400004C08C2D0E94741006C0C0948091890311
:10455000C822C09289030E947B1030C03F2D3F705B
:10456000C32E8F2D807F803219F0C29480EFC82235
:10457000882089F081E0881609F47FC0DD2009F4E5
:1045800089C0BB2009F47FC0F801858180FFC5CFB9
:104590008F70858378C02091970522FF4BC0DD2066
:1045A00009F442C0CC2039F080918A03C82AC09215
:1045B0008A030E947B1080E00E94C411292D28509C
:1045C000330B2430310510F40E94DB05AA2009F4D6
:1045D00034CC8091870380FD30CCF8011282859520
:1045E000859585950E947211C8010E94FB1E8091DD
:1045F00087038595859585950F900F900F900F9067
:104600000F90DF91CF911F910F91FF90EF90DF906E
:10461000CF90BF90AF909F908F907F906F905F9062
:104620004F903F900C944A1180E00E949211CC2050
:1046300029F287CFDD20A1F090918B038C2D892B5F
:10464000B11003C00E948811B9CFE1E0BE12FACFC9
:1046500022FDB4CF891709F4B1CF80938B03AECF7D
:10466000B11006C00E946E108C2D0E948111A6CF41
:10467000F1E0BF1609F4A2CFF5CFDD2031F025E03F
:104680002B1508F49BCF8C2DDDCF34E03B1508F4BF
:1046900095CFEACFBB2041F3F9E38F1209C02FEF8A
:1046A00037EE83E0215030408040E1F700C0000049
:1046B0008E2D0E94921182CF8F2D869586958370C4
:1046C00061F0813009F07ACFC7019370D11002C038
:1046D00090E080E00E94AF0571CFC7019370D110C8
:1046E00002C090E080E00E94C50568CF8E2DDD20DD
:1046F00029F00E94300E0E944E0D60CF0E94750D71
:10470000FACF8F2D837091F5D11058CF4E2D429551
:1047100046954770440F440F8E2D8F70042E01C0B4
:10472000880F0A94EAF72E2D2071E4FE07C02FE0CF
:1047300030E001C0220F4A95EAF720953F2D3695CB
:1047400036953370323069F050F440918C0331303B
:1047500029F0822B84230E947D1130CF842B822B61
:10476000FACF282B80918C038227F5CF8695DD2008
:1047700011F08F2D8170882309F420CF4E2D4295A2
:1047800046954770440F440F8E2D8F70042E01C044
:10479000880F0A94EAF72E2D2071E4FE07C02FE05F
:1047A00030E001C0220F4A95EAF720953F2D36955B
:1047B00036953370323069F050F440910106313053
:1047C00029F0822B84230E943B11F8CE842B822B6C
:1047D000FACF282B809101068227F5CF9F2D9F705D
:1047E000F92EDD2029F0892F0E9472118E2D2ACFFB
:1047F0008E2D0E9481118F2D0E944A11DFCE8E2DA9
:10480000E2EF8E16B1F1E81570F0F0EF8F16D1F0EF
:1048100021EF821691F0DD2009F45EC0B1107DCE4B
:104820008F2D8F712AC033EF831651F194EF8912C7
:10483000F2CF8091970582FF2FC08F2D8F71DD20E1
:10484000D9F21BC0DD2081F0E4E0EB1508F4B6CE10
:104850002F2D2F7181E090E001C0880F2A95EAF793
:10486000909101068927AFCFF5E0FB1508F4A6CE9D
:10487000EFCF8F2D8F71D110BFCF0E9472119ECEBE
:1048800080E0DD2009F49FCF9F2D9F7181E001C062
:10489000880F9A95EAF797CFDD2099F02F2D2F7189
:1048A000F22E822F0E9472118091970582FD07C01F
:1048B00038E0F39EC00111248360809387038F2D1D
:1048C000DCCF81E00E94561181E08B1508F076CE96
:1048D00082E00E94561172CEBB2059F0893309F054
:1048E000E7CE9FEFE7EEF3E09150E040F040E1F7D4
:1048F000DDCE8F2D8F7180CFF0E1EF16FFE5FF0643
:1049000009F4D5CB21E1E2162FE5F20609F4D9CB63
:1049100092E7E916F10409F4D6CBE3E7EE16F104C9
:1049200009F4E9CBF3EFEF16FCE5FF0609F44ECCF2
:1049300008F0EBCB38EDE3163CE5F30609F442CC86
:1049400099EDE9169CE5F90609F44CCCE7EDEE1675
:10495000ECE5FE0609F0EACB26E241EE61EEC80185
:104960000E943513A7CA30E1E3163FE5F30609F4C8
:10497000A4CB91E1E9169FE5F90651F682E09ECBC2
:1049800085E0DE01119601900D928A95E1F7F8011C
:10499000228189819A81211167CA0E94CA10F82E4A
:1049A0006BCAF6E1EF16FCE5FF06E1F580913003F6
:1049B00069E2811165E380E193E00E94500530CC0B
:1049C00082722AECE2162CE5F20609F449CD08F0D1
:1049D0008AC095ECE9169CE5F90609F42DCD08F09E
:1049E00069C0F3ECEF16FCE5FF0609F419CD08F0F9
:1049F0001ECD32ECE3163CE5F30609F403CD8AE55F
:104A0000E8168DE5F80609F465CD08F03ECDE11411
:104A1000ECE5FE0609F44ECDFEEDEF16FCE5FF06D3
:104A200009F455CDF8018281E080F180882309F4F2
:104A300055CDC7010E947A14D82E682FC7010E9455
:104A4000F210B7018D2D0E946D140E94E60E7C01BC
:104A5000882EF801D280B580B2943FE0B3228091D5
:104A600087038770C1F0AD2CDD20B1F08F2D807FE2
:104A7000803421F080E28E0D883068F080919705B7
:104A800082FD09C082E00E945611809187038770E1
:104A9000AA24A3948111A12C9F2C92942FE09222FE
:104AA000FBE0F91508F48ACDE92DF0E0E05EFF4C5B
:104AB0000C94A22E97ECE9169CE5F90609F4C6CCF5
:104AC00008F4BFCCF8ECEF16FCE5FF0609F4C3CC04
:104AD0004EE156E06AE276E029ECE2162CE5F206B9
:104AE00009F4A2CC8CCF3FECE3163CE5F30609F4C5
:104AF000CACCB0F4ECECEE16ECE5FE0609F4BACC48
:104B000008F4B3CC2DECE2162CE5F20609F4B7CC90
:104B100085E03EECE3163CE5F30609F4B1CC6FCF3B
:104B200086EDE8168CE5F80640F482E191EDE91691
:104B30009CE5F90608F4A4CCBDC9EDE5EE16FE0629
:104B400009F4B8C95CCF1F93CF93DF9380915403CE
:104B5000807FA9F480915103882389F08091860396
:104B6000D091550360914F0370915003A09152036F
:104B7000B0915303C62FC72316E0D81304C0DF91AA
:104B8000CF911F91089590E0109711F0CF3F19F445
:104B900001968770F2CF189F9001199F300D112454
:104BA000F901EA5AFC4F41814713F2CF4081461385
:104BB000EFCF42814111ECCF438154814A1B5B0B03
:104BC000483C510528F7809154038F708061809391
:104BD0005403F901E55AFC4F80818F708061808316
:104BE0008FE493E00E94FB1EDF91CF911F910C9404
:104BF000C010AF92BF92CF92DF92EF92FF920F93CD
:104C00001F93CF93DF93CDB7DEB761970FB6F894BC
:104C1000DEBF0FBECDBF8C0185E0F801DE011D9621
:104C200001900D928A95E1F7F801E2808FE4A82EB9
:104C300083E0B82E609152037091530361157105A2
:104C400009F432C190914F0340915003892F84237E
:104C50008F3F09F429C120813181C380D480F09035
:104C60005103F601E61BF70BFF2009F4E8C0809121
:104C70005403582F507FE83CF10508F0ABC05111A8
:104C800077C0FE2C431321C092131FC0E1101DC03A
:104C90008F70806180935403C5010E94FB1E809138
:104CA0005403F80185838F2D61960FB6F894DEBF0B
:104CB0000FBECDBFDF91CF911F910F91FF90EF906D
:104CC000DF90CF90BF90AF900895CD2829F0822F2C
:104CD00083238F3F09F003C180E0F82FF170DF2EAE
:104CE00080FF3CC0809186034091550356E08413B9
:104CF00015C02D873E878D859E850E94A914292F7A
:104D000022952F702230F0F0243018F59F70F1F0CA
:104D1000F8019581907FD1F4D12C1EC090E0589F6E
:104D2000F001599FF00D1124EA5AFC4F61813613AE
:104D300006C06081261303C06281E6120FC001968F
:104D40008770D5CF9F7011F0882331F3805E883053
:104D500018F3C8010E94FB1EFD2CA5CFEE2009F41C
:104D6000A2CF80915403816080935403F12C9BCF98
:104D7000431306C0921304C0F801EE2009F479C071
:104D8000C8010E94B514882309F1EE20F9F0809142
:104D90005403803270F020914F03309150033887D4
:104DA0002F831986DB86CA868C87CE0107960E94E0
:104DB000FB1E86E0F801AFE4B3E001900D928A9506
:104DC000E1F70E94A325FF24F3946DCFC8010E9450
:104DD000FB1EF9CF51110AC08FE493E00E94FB1E25
:104DE00086E0F50111928A95E9F7C0CF43130FC011
:104DF00092130DC0E1100BC0F8018583C8010E9419
:104E0000FB1E86E0F50111928A95E9F74CCFC801A7
:104E10000E94B5148823D1F2EE20C1F28091540390
:104E2000803238F220914F03309150033A83298326
:104E30001B82DD82CC828E83CE010196B8CFE83C06
:104E4000F105F8F6FE2CEE2009F243131FC0921371
:104E50001DC08091540380FD10C0982F907F69F091
:104E6000F8018583903F31F0982F907F905F8F708D
:104E7000892B8583C8010E94FB1E86E0F801AFE400
:104E8000B3E001900D928A95E1F70DCFC8010E9421
:104E9000B51481118ECF80915403816080935403A7
:104EA000C8010E94FB1EFFCEEE2009F48FCFC8017F
:104EB0000E94B514F82E882309F488CF86E0F80103
:104EC000AFE4B3E001900D928A95E1F780914F0332
:104ED000909150030E94A9140E94A325E4CE81E082
:104EE0008E25FBCE1F93CF93DF93CDB7DEB76797A9
:104EF0000FB6F894DEBF0FBECDBF4B8B5C8B6D8BB6
:104F00007E8B8F8B6111109289031A8A198A85E032
:104F1000FE017396DE011D9601900D928A95E1F7D0
:104F200086E0FE013D96DE01179601900D928A956E
:104F3000E1F7CE0107960E94F925882389F016E053
:104F40008091860390915503891349C067960FB6E7
:104F5000F894DEBF0FBECDBFDF91CF911F910895B2
:104F600086E0FE013796DE01119601900D928A953A
:104F7000E1F78A859B85892B11F38F819885892399
:104F80008F3FE9F22091550330E0C9010196877007
:104F90009927409186034817190671F40E94B41AA4
:104FA000109255031092860386E0EFE4F3E0DF01F0
:104FB0001D928A95E9F7C3CF96E0929FD001939F07
:104FC000B00D1124AA5ABC4FFE01319601900D92EA
:104FD0009A95E1F7809355030E94C010B0CF819F4E
:104FE000C00111248A5A9C4F0E94F925882309F494
:104FF000ADCF8091860390E00196877099278093CA
:1050000086039ECF1F920F920FB60F9211242F93FB
:105010003F934F935F936F937F938F939F93AF9340
:10502000BF93CF93DF93EF93FF93D091E900DF70AD
:105030008091EC00C82FC17080FDC0E81092E9009B
:105040008091F000877F8093F00078940E94C91AC5
:105050001092E9008091F00088608093F000CD2BE1
:10506000CF70C093E900FF91EF91DF91CF91BF9195
:10507000AF919F918F917F916F915F914F913F91F0
:105080002F910F900FBE0F901F9018951F920F92A7
:105090000FB60F9211242F933F934F935F936F930B
:1050A0007F938F939F93AF93BF93EF93FF938091E1
:1050B000E10082FF09C08091E20082FF05C080917B
:1050C000E1008B7F8093E1008091DA0080FF24C0B3
:1050D0008091D80080FF20C08091DA008E7F80937D
:1050E000DA008091D90080FF9DC080E189BD82E116
:1050F00089BD09B400FEFDCF81E08093C005809199
:105100009B05811109C00E94A7030E94720480912F
:10511000E20084608093E2008091E10080FF17C08C
:105120008091E20080FF13C08091E2008E7F809327
:10513000E2008091E20080618093E2008091D800DB
:1051400080628093D80019BC85E08093C00580916F
:10515000E10084FF2BC08091E20084FF27C080E142
:1051600089BD82E189BD89B5982F917080FFFBCF01
:105170008091D8008F7D8093D8008091E1008F7E50
:105180008093E1008091E2008F7E8093E200809125
:10519000E20081608093E2008091C105882309F4D8
:1051A00047C084E08093C0058091C0058091E100F4
:1051B00083FF27C08091E20083FF23C08091E1003C
:1051C000877F8093E10082E08093C0051092C10543
:1051D0008091E1008E7F8093E1008091E2008E7FDC
:1051E0008093E2008091E20080618093E20042E0DF
:1051F00060E080E00E9440048091F000886080932D
:10520000F000FF91EF91BF91AF919F918F917F91AE
:105210006F915F914F913F912F910F900FBE0F9023
:105220001F90189519BC1092C00510929B0574CF61
:105230008091E30087FD93E09093C005B5CF78940B
:105240001F921FB61F9211248F939F93AF93BF930A
:105250008091920590919305A0919405B091950548
:105260000196A11DB11D8093920590939305A09383
:105270009405B0939505BF91AF919F918F911F9029
:105280001FBE1F9018951F921FB61F9211248F9357
:105290009F93AF93BF9380919105811113C080912B
:1052A000920590919305A0919405B0919505419632
:1052B000A11DB11D8093920590939305A093940531
:1052C000B0939505BF91AF919F918F911F901FBE95
:1052D0001F901895CDB7DEB7E2970FB6F894DEBFF2
:1052E0000FBECDBF84B7877F84BF0FB6F894A89553
:1052F00080916000886180936000109260000FBE12
:1053000080E890E00FB6F89480936100909361007C
:105310000FBE85B7806885BF85B7806885BF8AE87E
:105320009EE090930F0380930E030E94A7030E94B8
:1053300072048091E20084608093E200789480910E
:10534000C0058823A1F01091E9001F709091EC0036
:10535000892F817090FD80E8182B1092E9008091D0
:10536000E80083FD0E94C91A1F701093E90082E0D3
:1053700084BD93E095BD9AEF97BD80936E000E9427
:10538000DC14811102C00E9416140DE411E0D80152
:105390008D918D018F3F11F00E948C0EB1E002358E
:1053A0001B07A9F702E511E0F80181918F018F3FFA
:1053B00011F00E948C0EF1E001361F07A9F78AE078
:1053C000E6EAF3E0DF01282F1D922A95E9F7E0E9EC
:1053D000F3E0DF011D928A95E9F70E94861E811194
:1053E00002C00E94911E82E090E00E94312F8093C3
:1053F0009B030E94F51490939705809396050E9455
:10540000921DEFE3FCE93197F1F700C000000E9424
:10541000921D8091A60380FF08C06FEF7FEF90E0A0
:1054200080E00E94732F0E94CD1283E090E00E94E2
:10543000312F0E947D111092CE058FEF9FEF909338
:10544000E8058093E7059093EA058093E90590933A
:10545000EC058093EB059093EE058093ED0590931A
:10546000F0058093EF059093F2058093F1059093FA
:10547000F4058093F3059093F6058093F50510925B
:10548000BD039093D7038093D6039093D903809361
:10549000D8039093DB038093DA039093DD0380932A
:1054A000DC039093DF038093DE039093E10380930A
:1054B000E0039093E3038093E2039093E5038093EA
:1054C000E4030E94861E811104C00E94911E0E9466
:1054D000991A46E050E06CE170E08BEF95E00E9495
:1054E000212F1092FA058091FB058C7F11F40E9408
:1054F000991A80919605806880939605809196050B
:10550000909197050E94251483E190E00E94392F25
:1055100060933D0470933E0480933F049093400455
:1055200084E091E090938E0580938D0500E1502EEC
:105530008091C00512E1853009F417C20E94921DC6
:10554000882359F08FB7F8944091920550919305B4
:1055500060919405709195058FBFA6EAB3E0B8AB52
:10556000AFA71CE9E12E13E0F12EE8E7F1E0FCA77C
:10557000EBA7B12CA12CAFA5B8A92D903D90B8AB4D
:10558000AFA7F701808191818215930509F497C037
:105590009C01222533253AAB29AB8BA59CA59EA760
:1055A0008DA7712CCC24C394D12C89A99AA98C21C4
:1055B0009D21892B09F478C079A2AAA281010C212E
:1055C0001D2181E00115110509F480E08BA30E94E3
:1055D00044058160782F9DA38CA349A15AA16BA19A
:1055E0008DA10E947227D7018D919C9111978C25D6
:1055F0009D258D939C93012B31F0EDA5FEA5808117
:105600008F3F09F0BCC1412C042D10E08091BD03F7
:10561000800F912F911D09976CF1E8E08E2E912C4F
:10562000801A910AB80162547C4FA4018EEB93E07A
:105630000E94182FB8016A537C4FA40186EC93E0B6
:105640000E94182FA401440F551FB801660F771F41
:105650006A527C4F86ED93E00E94182FB801625386
:105660007C4FA4018EEC93E00E94182F88E08419EF
:105670008093BD038091BD0390E0A62DB0E09D0115
:10568000220F331F2D533E4FAA0FBB1FBD016C537A
:105690007E4F41E0480F941508F475C18093BD0317
:1056A000B394BBE0BB1548F17394CC0CDD1CEDA5A5
:1056B000FEA53196FEA7EDA7FFE07F1276CFA3945B
:1056C00022E0E20EF11C8BA59CA50F969CA78BA750
:1056D00095E0A91250CFB11010C08FEF8EA38FA309
:1056E00018A60E9444058160782F9AA789A74EA129
:1056F0005FA168A58AA50E9472270E94701586E0A6
:10570000E7EBF3E0DE01119601900D928A95E1F747
:10571000F090B903E090BA031091BB030091BC0371
:105720001092B9031092BA031092BB031092BC03FB
:105730008F2D8E2909F448C08091B5039091B6034E
:105740000E9435059C019091B103992309F4CDC2C3
:1057500023333105C8F19F3F19F09F5F9093B10348
:10576000FF2059F00E94100E9FEF1F140CF491E0DF
:10577000899F802D11248093B903EE2059F00E9457
:10578000100E9FEF1E140CF491E0899F802D1124C0
:105790008093BA033091B9033323B1F02091BA0357
:1057A000222391F045EB3403C0011124992309F41D
:1057B000FFC09093B90345EB2403900111243323D8
:1057C00009F4FAC03093BA03812F802B09F448C042
:1057D0008091B3039091B4030E9435059C01909190
:1057E000B003992309F47CC225363105C8F19F3FE7
:1057F00019F09F5F9093B003112359F00E94EE0DB2
:105800009FEF11160CF491E0899F802D1124809355
:10581000BB03002359F00E94EE0D9FEF10160CF40D
:1058200091E0899F802D11248093BC033091BB03AC
:105830003323B1F02091BC03222391F045EB3403D4
:10584000C0011124992309F4BBC09093BB0345EB1D
:10585000240390011124332309F4B6C03093BC0310
:105860008091B9039091BA03892B9091BB03892B46
:105870009091BC03892B11F00E944E0D86E0FE0131
:105880003196A7EBB3E001900D928A95E1F70E9463
:10589000DB0590919A03891721F00E94DB05809324
:1058A0009A038091C005843009F042CE83E0809352
:1058B000E9008091E80082FF3BCE8091E80090E013
:1058C00085FF06C00E94C603882309F481C091E0C9
:1058D0008091E8008B778093E800992309F428CE23
:1058E000E981E150E33108F010C1F0E0E45DFF4CE4
:1058F0000C94A22E8091C005843031F10E94701565
:105900001092910528E130E040E40FB6F894A89594
:10591000209360000FBE4093600083B7817F846056
:1059200083BF83B7816083BF7894889583B78E7F68
:1059300083BF0FB6F894A89580916000886180932A
:105940006000109260000FBE8091BF05882369F04F
:105950000E94921DE6EAF3E081919191892B09F072
:10596000A0C183E0E03BF807B9F78091C00585301E
:1059700009F4C0CF0E94B41A0E94DB05DFCD682E67
:105980004424439441CE90E0FC01E354FC4FD90100
:105990005C915183DB015C915187618A880F991F6B
:1059A000FC01E354FC4F128E118E91E0842F71CED6
:1059B00081E08093B903FFCE81E08093BA0304CFE6
:1059C00081E08093BB0343CF81E08093BC0348CF49
:1059D00000E210E0CE0101967C018091E80085FD97
:1059E0000AC08091E8008B778093E8000E94C6038C
:1059F000882399F36CCF8091F100D7018D937D01BD
:105A00000150110951F763CF1A8289E08B831AC0C4
:105A10008A81823009F45BC18330D9F1813009F089
:105A200074C02FB7F894609192057091930580919E
:105A30009405909195052FBF0E94A82E6B837C83BF
:105A40008D839E838091C005843009F071CD1091C3
:105A5000E9001F709091EC00892F817090FD80E823
:105A6000182B82E08093E9008091E80080FF0DC050
:105A700050E040E060E270E0CE0101960E94F70342
:105A80008091E8008E778093E8001F701093E90002
:105A90004FCD8091A6039091A70398278927982737
:105AA0009C838B838091A8039091A90398278927D1
:105AB00098279E838D838091AA039091AB039827AA
:105AC0008927982798878F838091AC039091AD03A5
:105AD0009827892798279A8789878091AE03909184
